00COTAHIST.2026BOVESPA 20260203                                                                                                                                                                                                                      
012026020302BRAV3       010BRAVA       ON      NM   R$  000000000186000000000018680000000001825000000000184500000000018250000000001825000000000183011402000000000005580900000000010301035700000000000000009999123100000010000000000000BRBRAVACNOR3103
012026020302ESPA3       010ESPACOLASER ON      NM   R$  000000000008900000000000900000000000087000000000008800000000000870000000000087000000000008800416000000000000545600000000000048104000000000000000009999123100000010000000000000BRESPAACNOR7105
012026020302ETER3       010ETERNIT     ON      NM   R$  000000000040300000000004050000000000400000000000040200000000004010000000000401000000000040300308000000000000094900000000000038199800000000000000009999123100000010000000000000BRETERACNOR3246
012026020302EUCA3       010EUCATEX     ON      N1   R$  000000000205500000000021000000000002055000000000206000000000020560000000002060000000000216900006000000000000000800000000000001648600000000000000009999123100000010000000000000BREUCAACNOR1159
012026020302EUCA4       010EUCATEX     PN      N1   R$  000000000208600000000020970000000002002000000000204300000000020050000000002005000000000200900475000000000000066200000000000135286500000000000000009999123100000010000000000000BREUCAACNPR8046
012026020302EVEN3       010EVEN        ON      NM   R$  000000000079800000000008370000000000798000000000081600000000008050000000000805000000000081304954000000000001361100000000001111406000000000000000009999123100000010000000000000BREVENACNOR8121
012026020302EZTC3       010EZTEC       ON      NM   R$  000000000154400000000015830000000001536000000000155700000000015530000000001552000000000155306285000000000001631200000000002540632700000000000000009999123100000010000000000000BREZTCACNOR0132
012026020302AURE3       010AUREN       ON      NM   R$  000000000112300000000011360000000001112000000000112200000000011170000000001116000000000111910516000000000004700900000000005277545800000000000000009999123100000010000000000000BRAUREACNOR9105
012026020302AVLL3       010ALPHAVILLE  ON      NM   R$  000000000008700000000000870000000000087000000000008700000000000870000000000086000000000008800001000000000000001700000000000000147900000000000000009999123100000010000000000000BRAVLLACNOR5103
012026020302AXIA3       010AXIA ENERGIAON      N1   R$  000000000564600000000057200000000005598000000000567300000000056740000000005666000000000567550094000000000013019000000000073864813600000000000000009999123100000010000000000000BRAXIAACNOR0102
012026020302AXIA6       010AXIA ENERGIAPNB     N1   R$  000000000600000000000060820000000005962000000000602700000000060280000000006013000000000603511595000000000002120500000000012782014900000000000000009999123100000010000000000000BRAXIAACNPB1103
012026020302AXIA7       010AXIA ENERGIAPNC     N1   R$  000000000545300000000055380000000005418000000000549000000000055000000000005498000000000552519942000000000005113200000000028076367400000000000000009999123100000010000000000000BRAXIAACNPC9100
012026020302COCE5       010COELCE      PNA          R$  000000000318000000000032300000000003179000000000319500000000032300000000003196000000000323000099000000000000036600000000000116968900000000000000009999123100000010000000000000BRCOCEACNPA3150
012026020302COGN3       010COGNA ON    ON      NM   R$  000000000045500000000004600000000000428000000000043900000000004340000000000434000000000043628916000000000048594500000000021362306700000000000000009999123100000010000000000000BRCOGNACNOR2110
012026020302CYRE3       010CYRELA REALTON      NM   R$  000000000308100000000032170000000003081000000000317500000000032000000000003196000000000320227157000000000009186000000000029172236200000000000000009999123100000010000000000000BRCYREACNOR7143
012026020302CYRE4       010CYRELA REALTPN      NM   R$  000000000295300000000030900000000002948000000000302000000000030900000000003040000000000309402532000000000000803000000000002425201100000000000000009999123100000010000000000000BRCYREACNPR4114
012026020302ENEV3       010ENEVA       ON      NM   R$  000000000212100000000021600000000002103000000000212600000000021170000000002116000000000211926690000000000013394700000000028484968100000000000000009999123100000010000000000000BRENEVACNOR8107
012026020302HYPE3       010HYPERA      ON      NM   R$  000000000257700000000026170000000002552000000000257800000000025630000000002562000000000256506105000000000001725200000000004449209500000000000000009999123100000010000000000000BRHYPEACNOR0149
012026020302IBOV11      010IBOVESPA    IBO/         R$  000001852090000000185209000000018520900000001852090000000185209000000000000000000000000000000004000000000000002515000000000465800635000000000000009999123100001000000000000000BRIBOVINDM18015
012026020302MATD3       010MATER DEI   ON      NM   R$  000000000060700000000006100000000000589000000000059600000000005910000000000589000000000059300701000000000000179400000000000107068500000000000000009999123100000010000000000000BRMATDACNOR4106
012026020302MBRF3       010MARFRIG     ON      NM   R$  000000000190800000000019440000000001902000000000192400000000019290000000001920000000000193014061000000000006333800000000012191290700000000000000009999123100000010000000000000BRMBRFACNOR1100
012026020302NEOE3       010NEOENERGIA  ON      NM   R$  000000000324500000000032470000000003240000000000324200000000032450000000003243000000000324502700000000000002589100000000008396170200000000000000009999123100000010000000000000BRNEOEACNOR3127
012026020302NGRD3       010NEOGRID     ON      NM   R$  000000000271900000000027400000000002702000000000271800000000027030000000002703000000000273000041000000000000007100000000000019301800000000000000009999123100000010000000000000BRNGRDACNOR3106
012026020302SUZB3       010SUZANO S.A. ON      NM   R$  000000000489800000000049610000000004877000000000490700000000049090000000004906000000000491725253000000000007575300000000037176279400000000000000009999123100000010000000000000BRSUZBACNOR0135
012026020302GGPS3       010GPS         ON      NM   R$  000000000190900000000019370000000001882000000000190300000000018900000000001890000000000189604973000000000002047100000000003896221900000000000000009999123100000010000000000000BRGGPSACNOR9106
012026020302GMAT3       010GRUPO MATEUSON      NM   R$  000000000049700000000005060000000000495000000000050200000000005020000000000502000000000050305890000000000007377600000000003707427600000000000000009999123100000010000000000000BRGMATACNOR7109
012026020302GOAU3       010GERDAU MET  ON      N1   R$  000000000096900000000009930000000000968000000000097900000000009740000000000973000000000098000193000000000000032900000000000032229300000000000000009999123100000010000000000000BRGOAUACNOR1274
012026020302GOAU4       010GERDAU MET  PN      N1   R$  000000000101100000000010310000000001011000000000102300000000010280000000001025000000000102811514000000000008427000000000008623680700000000000000009999123100000010000000000000BRGOAUACNPR8275
012026020302VALE3       010VALE        ON      NM   R$  000000000864200000000089000000000008642000000000880300000000088990000000008896000000000889965922000000000037709700000000331977397900000000000000009999123100000010000000000000BRVALEACNOR0218
012026020302VAMO3       010VAMOS       ON      NM   R$  000000000041100000000004400000000000411000000000042800000000004370000000000436000000000043721768000000000028584800000000012255249300000000000000009999123100000010000000000000BRVAMOACNOR7109
012026020302IRBR3       010IRBBRASIL REON      NM   R$  000000000595300000000060150000000005859000000000592900000000058900000000005890000000000591803172000000000000550600000000003264711900000000000000009999123100000010000000000000BRIRBRACNOR4113
012026020302JSLG3       010JSL         ON      NM   R$  000000000078500000000007970000000000757000000000077400000000007710000000000771000000000077707085000000000004477100000000003465300700000000000000009999123100000010000000000000BRJSLGACNOR2123
012026020302KEPL3       010KEPLER WEBERON      NM   R$  000000000101900000000010310000000001017000000000102200000000010230000000001018000000000102305090000000000001875200000000001917630000000000000000009999123100000010000000000000BRKEPLACNOR1069
012026020302KLBN11      010KLABIN S/A  UNT     N2   R$  000000000192100000000019460000000001903000000000192400000000019250000000001920000000000192615108000000000008887700000000017100715500000000000000009999123100000010000000000000BRKLBNCDAM18151
012026020302KLBN3       010KLABIN S/A  ON      N2   R$  000000000039100000000003920000000000383000000000038700000000003860000000000386000000000038802395000000000001194600000000000463193600000000000000009999123100000010000000000000BRKLBNACNOR2179
012026020302KLBN4       010KLABIN S/A  PN      N2   R$  000000000038700000000003890000000000381000000000038500000000003840000000000384000000000038504215000000000006100500000000002349567500000000000000009999123100000010000000000000BRKLBNACNPR9179
012026020302MILS3       010MILLS       ON      NM   R$  000000000156200000000015960000000001551000000000156600000000015560000000001556000000000155703147000000000000985800000000001544312800000000000000009999123100000010000000000000BRMILSACNOR2132
012026020302RNEW3       010RENOVA      ON      N2   R$  000000000010900000000001100000000000107000000000010800000000001090000000000108000000000010900046000000000000038000000000000004123900000000000000009999123100000010000000000000BRRNEWACNOR8113
012026020302RNEW4       010RENOVA      PN      N2   R$  000000000009400000000000950000000000092000000000009200000000000920000000000091000000000009200061000000000000046100000000000004271200000000000000009999123100000010000000000000BRRNEWACNPR5113
012026020302ROMI3       010ROMI        ON      NM   R$  000000000084000000000008580000000000830000000000083800000000008310000000000831000000000083301226000000000000395500000000000331704400000000000000009999123100000010000000000000BRROMIACNOR8201
012026020302RSUL4       010RIOSULENSE  PN           R$  000000000635700000000065070000000006351000000000640000000000063600000000006353000000000645000015000000000000001500000000000009600500000000000000009999123100000010000000000000BRRSULACNPR3116
012026020302RVEE3       010REVEE       ON      NM   R$  000000000019900000000001990000000000199000000000019900000000001990000000000158000000000019700001000000000000000100000000000000019900000000000000009999123100000010000000000000BRRVEEACNOR9102
012026020302ONCO3       010ONCOCLINICASON      NM   R$  000000000023800000000002450000000000235000000000023800000000002350000000000235000000000023602487000000000002120400000000000504926900000000000000009999123100000010000000000000BRONCOACNOR6102
012026020302OPCT3       010OCEANPACT   ON      NM   R$  000000000095200000000009700000000000952000000000096200000000009690000000000962000000000096901597000000000000389100000000000374672500000000000000009999123100000010000000000000BROPCTACNOR0100
012026020302ORVR3       010ORIZON      ON      NM   R$  000000000760000000000077070000000007511000000000757700000000075330000000007533000000000753904405000000000000706200000000005351310300000000000000009999123100000010000000000000BRORVRACNOR0101
012026020302UNIP6       010UNIPAR      PNB          R$  000000000640000000000065730000000006373000000000651200000000065730000000006557000000000657301846000000000000299600000000001951035300000000000000009999123100000010000000000000BRUNIPACNPB8210
012026020302TPIS3       010TRIUNFO PARTON      NM   R$  000000000052200000000005580000000000522000000000055000000000005580000000000542000000000055800088000000000000031100000000000017123500000000000000009999123100000010000000000000BRTPISACNOR8120
012026020302TRAD3       010TC          ON      NM   R$  000000000029800000000003130000000000298000000000030200000000002990000000000299000000000030000048000000000000028700000000000008694600000000000000009999123100000010000000000000BRTRADACNOR3102
012026020302TRIS3       010TRISUL      ON      NM   R$  000000000072300000000007410000000000722000000000073100000000007300000000000728000000000073001026000000000000383300000000000280290900000000000000009999123100000010000000000000BRTRISACNOR4122
012026020302MDIA3       010M.DIASBRANCOON  ED  NM   R$  000000000251300000000025520000000002506000000000253000000000025230000000002523000000000253203900000000000000910400000000002303861100000000000000009999123100000010000000000000BRMDIAACNOR7150
012026020302MDNE3       010MOURA DUBEUXON      NM   R$  000000000293000000000030280000000002906000000000296100000000029500000000002947000000000295808601000000000001886600000000005587118500000000000000009999123100000010000000000000BRMDNEACNOR9104
012026020302MEAL3       010IMC S/A     ON      NM   R$  000000000011300000000001160000000000113000000000011400000000001160000000000114000000000011600115000000000000363800000000000041725500000000000000009999123100000010000000000000BRMEALACNOR9105
012026020302MELK3       010MELNICK     ON      NM   R$  000000000039400000000004060000000000394000000000040100000000004020000000000402000000000040400798000000000000451700000000000181569000000000000000009999123100000010000000000000BRMELKACNOR8116
012026020302MGEL4       010MANGELS INDLPN           R$  000000000068700000000007200000000000687000000000069200000000007200000000000640000000000070900004000000000000001300000000000000900700000000000000009999123100000010000000000000BRMGELACNPR3147
012026020302MGLU3       010MAGAZ LUIZA ON      NM   R$  000000000100600000000010270000000000997000000000101000000000010120000000001006000000000101217703000000000022715700000000022958862400000000000000009999123100000010000000000000BRMGLUACNOR2130
012026020302OFSA3       010OUROFINO S/AON      NM   R$  000000000247400000000024740000000002426000000000244600000000024360000000002436000000000247400013000000000000002800000000000006849200000000000000009999123100000010000000000000BROFSAACNOR7122
012026020302PCAR3       010P.ACUCAR-CBDON      NM   R$  000000000038700000000003920000000000382000000000038700000000003890000000000388000000000039011559000000000010143400000000003930366500000000000000009999123100000010000000000000BRPCARACNOR3170
012026020302PRNR3       010PRINER      ON      NM   R$  000000000182800000000019020000000001815000000000186600000000018850000000001871000000000188504556000000000000982000000000001832543500000000000000009999123100000010000000000000BRPRNRACNOR4111
012026020302MLAS3       010MULTILASER  ON      NM   R$  000000000014000000000001470000000000138000000000014100000000001420000000000141000000000014202206000000000002264100000000000320285700000000000000009999123100000010000000000000BRMLASACNOR9102
012026020302MNDL3       010MUNDIAL     ON           R$  000000000184900000000018500000000001760000000000180100000000017830000000001760000000000183900018000000000000004000000000000007204200000000000000009999123100000010000000000000BRMNDLACNOR4109
012026020302MNPR3       010MINUPAR     ON           R$  000000000044300000000004450000000000438000000000044100000000004390000000000438000000000044200018000000000000004300000000000001900300000000000000009999123100000010000000000000BRMNPRACNOR5123
012026020302MOTV3       010MOTIVA SA   ON      NM   R$  000000000171500000000017450000000001681000000000171200000000017210000000001714000000000172117389000000000010719200000000018361170000000000000000009999123100000010000000000000BRMOTVACNOR7102
012026020302MOVI3       010MOVIDA      ON      NM   R$  000000000128100000000013440000000001281000000000130900000000013150000000001311000000000131508822000000000004614700000000006044060600000000000000009999123100000010000000000000BRMOVIACNOR0126
012026020302PINE3       010PINE        ON      N2   R$  000000000130100000000013150000000001281000000000129600000000012850000000001285000000000131500020000000000000005200000000000006743300000000000000009999123100000010000000000000BRPINEACNOR1160
012026020302PINE4       010PINE        PN      N2   R$  000000000138500000000014080000000001354000000000137500000000013750000000001375000000000137801650000000000000349900000000000481218600000000000000009999123100000010000000000000BRPINEACNPR8160
012026020302PLAS3       010PLASCAR PARTON           R$  000000000050000000000005000000000000500000000000050000000000005000000000000473000000000050000001000000000000000100000000000000050000000000000000009999123100000010000000000000BRPLASACNOR2106
012026020302PLPL3       010PLANOEPLANO ON      NM   R$  000000000152600000000015680000000001514000000000154100000000015330000000001532000000000153306764000000000001886700000000002907839300000000000000009999123100000010000000000000BRPLPLACNOR5106
012026020302PNVL3       010DIMED       ON      NM   R$  000000000136600000000014180000000001360000000000139700000000014100000000001410000000000141205241000000000001263200000000001765515200000000000000009999123100000010000000000000BRPNVLACNOR9213
012026020302POMO3       010MARCOPOLO   ON      N2   R$  000000000061000000000006230000000000610000000000061700000000006140000000000614000000000061500885000000000000411200000000000253959100000000000000009999123100000010000000000000BRPOMOACNOR0105
012026020302POMO4       010MARCOPOLO   PN      N2   R$  000000000066000000000006640000000000649000000000065500000000006500000000000650000000000065409864000000000007834100000000005134569000000000000000009999123100000010000000000000BRPOMOACNPR7105
012026020302RAIL3       010RUMO S.A.   ON      NM   R$  000000000149500000000015080000000001477000000000149800000000015070000000001505000000000150722725000000000016327400000000024465448200000000000000009999123100000010000000000000BRRAILACNOR9106
012026020302SMFT3       010SMART FIT   ON      NM   R$  000000000228000000000023380000000002254000000000228500000000022540000000002254000000000227616491000000000006156300000000014069503700000000000000009999123100000010000000000000BRSMFTACNOR1118
012026020302FRAS3       010FRAS-LE     ON      N1   R$  000000000244000000000025000000000002440000000000246600000000024510000000002450000000000245501214000000000000229100000000000565084900000000000000009999123100000010000000000000BRFRASACNOR0163
012026020302IFCM3       010INFRACOMM   ON      NM   R$  000000000006900000000000700000000000064000000000006500000000000640000000000064000000000006500864000000000000715500000000000047021200000000000000009999123100000010000000000000BRIFCMACNOR8109
012026020302IGTI11      010IGUATEMI S.AUNT     N1   R$  000000000287800000000029060000000002844000000000286800000000028670000000002865000000000286711964000000000003048100000000008744256900000000000000009999123100000010000000000000BRIGTICDAM16108
012026020302IGTI3       010IGUATEMI S.AON      N1   R$  000000000033300000000003370000000000331000000000033400000000003370000000000333000000000033700039000000000000016500000000000005514500000000000000009999123100000010000000000000BRIGTIACNOR8108
012026020302INEP3       010INEPAR      ON           R$  000000000016400000000001720000000000157000000000016400000000001600000000000159000000000016500167000000000000103800000000000017089400000000000000009999123100000010000000000000BRINEPACNOR1145
012026020302INEP4       010INEPAR      PN           R$  000000000013000000000001350000000000126000000000013100000000001290000000000127000000000012900047000000000000036300000000000004775700000000000000009999123100000010000000000000BRINEPACNPR8145
012026020302USIM3       010USIMINAS    ON      N1   R$  000000000064500000000006810000000000645000000000066200000000006560000000000656000000000066301055000000000000763700000000000506119600000000000000009999123100000010000000000000BRUSIMACNOR3167
012026020302USIM5       010USIMINAS    PNA     N1   R$  000000000065600000000006870000000000649000000000066600000000006640000000000661000000000066414567000000000025253600000000016840736500000000000000009999123100000010000000000000BRUSIMACNPA6172
012026020302WEST3       010WESTWING    ON      NM   R$  000000000058500000000006000000000000565000000000057500000000005820000000000581000000000059500023000000000000008100000000000004663100000000000000009999123100000010000000000000BRWESTACNOR3101
012026020302WHRL3       010WHIRLPOOL   ON           R$  000000000044100000000004470000000000441000000000044300000000004440000000000443000000000044600010000000000000001300000000000000576900000000000000009999123100000010000000000000BRWHRLACNOR5135
012026020302WHRL4       010WHIRLPOOL   PN           R$  000000000046900000000004790000000000468000000000047000000000004680000000000469000000000047300033000000000000007800000000000003672400000000000000009999123100000010000000000000BRWHRLACNPR2135
012026020302WIZC3       010WIZ CO      ON      NM   R$  000000000102400000000010370000000001014000000000102400000000010280000000001021000000000102801730000000000000359800000000000368458700000000000000009999123100000010000000000000BRWIZCACNOR5104
012026020302WLMM3       010WLM IND COM ON           R$  000000000207900000000020790000000002079000000000207900000000020790000000001961000000000220000001000000000000000100000000000000207900000000000000009999123100000010000000000000BRWLMMACNOR6125
012026020302WLMM4       010WLM IND COM PN           R$  000000000213500000000022700000000002135000000000219400000000022700000000002125000000000228000008000000000000002600000000000005706200000000000000009999123100000010000000000000BRWLMMACNPR3125
012026020302UCAS3       010UNICASA     ON      NM   R$  000000000014300000000001430000000000137000000000014000000000001420000000000138000000000014200116000000000000111300000000000015585700000000000000009999123100000010000000000000BRUCASACNOR1114
012026020302UGPA3       010ULTRAPAR    ON      NM   R$  000000000261500000000026440000000002593000000000261700000000026110000000002611000000000261721824000000000008554100000000022390354100000000000000009999123100000010000000000000BRUGPAACNOR8159
012026020302UNIP3       010UNIPAR      ON           R$  000000000606000000000062370000000006047000000000613600000000061000000000006100000000000621400154000000000000024600000000000150966200000000000000009999123100000010000000000000BRUNIPACNOR7210
012026020302UNIP5       010UNIPAR      PNA          R$  000000000658800000000066660000000006318000000000651100000000065250000000006333000000000652500012000000000000001600000000000010418000000000000000009999123100000010000000000000BRUNIPACNPA0212
012026020302YDUQ3       010YDUQS PART  ON      NM   R$  000000000147400000000014860000000001390000000000141800000000014000000000001399000000000140015369000000000007703400000000010927800300000000000000009999123100000010000000000000BRYDUQACNOR3108
012026020302GEPA3       010GER PARANAP ON           R$  000000000326000000000033980000000003260000000000331500000000033980000000003223000000000340000003000000000000000500000000000001657600000000000000009999123100000010000000000000BRGEPAACNOR2158
012026020302GEPA4       010GER PARANAP PN           R$  000000000350000000000035000000000003496000000000349700000000034960000000003467000000000349700004000000000000000400000000000001399100000000000000009999123100000010000000000000BRGEPAACNPR9165
012026020302GFSA3       010GAFISA      ON      NM   R$  000000000040800000000004120000000000397000000000039900000000004000000000000400000000000040100936000000000000846000000000000338374400000000000000009999123100000010000000000000BRGFSAACNOR3127
012026020302INTB3       010INTELBRAS   ON      NM   R$  000000000125400000000012970000000001253000000000128200000000012800000000001279000000000128004862000000000001900600000000002437214700000000000000009999123100000010000000000000BRINTBACNOR9115
012026020302JALL3       010JALLESMACHADON      NM   R$  000000000029300000000003100000000000293000000000030300000000003070000000000306000000000030701745000000000002107400000000000640071300000000000000009999123100000010000000000000BRJALLACNOR0106
012026020302JHSF3       010JHSF PART   ON  ED  NM   R$  000000000098300000000010090000000000983000000000099500000000009950000000000994000000000099606255000000000004133500000000004116046300000000000000009999123100000010000000000000BRJHSFACNOR2156
012026020302PDGR3       010PDG REALT   ON      NM   R$  000000000029500000000003000000000000282000000000028800000000002870000000000287000000000028800196000000000000144600000000000041739800000000000000009999123100000010000000000000BRPDGRACNOR8123
012026020302PDTC3       010PADTEC      ON      NM   R$  000000000016700000000001700000000000161000000000016700000000001700000000000166000000000017000142000000000000054800000000000009161400000000000000009999123100000010000000000000BRPDTCACNOR3101
012026020302PETR3       010PETROBRAS   ON      N2   R$  000000000399400000000040640000000003942000000000400200000000040080000000004003000000000400921375000000000016026500000000064141157900000000000000009999123100000010000000000000BRPETRACNOR9212
012026020302PETR4       010PETROBRAS   PN      N2   R$  000000000375100000000038320000000003714000000000376400000000037580000000003758000000000376061581000000000057152800000000215173977400000000000000009999123100000010000000000000BRPETRACNPR6223
012026020302PFRM3       010PROFARMA    ON      NM   R$  000000000091000000000009300000000000898000000000091100000000009110000000000908000000000091200839000000000000452900000000000412689200000000000000009999123100000010000000000000BRPFRMACNOR1122
012026020302PGMN3       010PAGUE MENOS ON      NM   R$  000000000069900000000007000000000000670000000000068000000000006800000000000680000000000068110839000000000004944000000000003366001100000000000000009999123100000010000000000000BRPGMNACNOR8106
012026020302RADL3       010RAIADROGASILON      NM   R$  000000000252800000000026710000000002520000000000263600000000026710000000002670000000000267147534000000000022407600000000059070272600000000000000009999123100000010000000000000BRRADLACNOR0165
012026020302QUAL3       010QUALICORP   ON      NM   R$  000000000023500000000002440000000000235000000000023900000000002390000000000236000000000023904172000000000002878900000000000688134400000000000000009999123100000010000000000000BRQUALACNOR6122
012026020302SHOW3       010TIME FOR FUNON      NM   R$  000000000058700000000005870000000000575000000000057900000000005750000000000574000000000057500195000000000000033200000000000019234500000000000000009999123100000010000000000000BRSHOWACNOR7106
012026020302SHUL4       010SCHULZ      PN           R$  000000000053100000000005500000000000529000000000054300000000005470000000000546000000000054801660000000000000796400000000000432541000000000000000009999123100000010000000000000BRSHULACNPR4163
012026020302SIMH3       010SIMPAR      ON      NM   R$  000000000068900000000006990000000000672000000000068200000000006800000000000677000000000068106407000000000005923700000000004044073100000000000000009999123100000010000000000000BRSIMHACNOR0109
012026020302SLCE3       010SLC AGRICOLAON      NM   R$  000000000159800000000016410000000001598000000000162300000000016210000000001620000000000162805592000000000001638100000000002659457500000000000000009999123100000010000000000000BRSLCEACNOR2128
012026020302ENGI11      010ENERGISA    UNT     N2   R$  000000000510000000000052380000000005099000000000517100000000051660000000005157000000000516613530000000000002884500000000014915931400000000000000009999123100000010000000000000BRENGICDAM16140
012026020302ENGI3       010ENERGISA    ON      N2   R$  000000000129800000000013280000000001267000000000129100000000012780000000001278000000000128100029000000000000003700000000000004779200000000000000009999123100000010000000000000BRENGIACNOR0150
012026020302ENGI4       010ENERGISA    PN      N2   R$  000000000094900000000009820000000000949000000000097000000000009690000000000969000000000097500028000000000000005000000000000004854700000000000000009999123100000010000000000000BRENGIACNPR7146
012026020302ENJU3       010ENJOEI      ON      NM   R$  000000000010800000000001120000000000106000000000010800000000001080000000000107000000000010801382000000000000337700000000000036610100000000000000009999123100000010000000000000BRENJUACNOR9100
012026020302ENMT3       010ENERGISA MT ON           R$  000000000503100000000052990000000005031000000000512100000000051000000000000000000000000509900007000000000000000700000000000003585000000000000000009999123100000010000000000000BRENMTACNOR5125
012026020302EPAR3       010EMBPAR S/A  ON           R$  000000000037700000000003770000000000365000000000037100000000003700000000000369000000000037300030000000000000006600000000000002453600000000000000009999123100000010000000000000BREPARACNOR9107
012026020302EQPA3       010EQTL PARA   ON           R$  000000000064700000000006470000000000632000000000064000000000006450000000000638000000000064500020000000000000002500000000000001601300000000000000009999123100000010000000000000BREQPAACNOR1112
012026020302EQTL3       010EQUATORIAL  ON      NM   R$  000000000412100000000042160000000004109000000000414000000000041210000000004121000000000412424652000000000007468100000000030924040600000000000000009999123100000010000000000000BREQTLACNOR0135
012026020302TELB3       010TELEBRAS    ON           R$  000000000116000000000011700000000001120000000000114600000000011700000000001130000000000117300007000000000000000900000000000001031800000000000000009999123100000010000000000000BRTELBACNOR2142
012026020302TELB4       010TELEBRAS    PN           R$  000000000077400000000008190000000000774000000000079900000000008190000000000800000000000082000023000000000000015600000000000012477000000000000000009999123100000010000000000000BRTELBACNPR9142
012026020302BPAC11      010BTGP BANCO  UNT     N2   R$  000000000621400000000062990000000006096000000000620200000000061220000000006115000000000612535019000000000011319800000000070212128300000000000000009999123100000010000000000000BRBPACUNT006128
012026020302BPAC3       010BTGP BANCO  ON      N2   R$  000000000448200000000046300000000004285000000000449400000000044250000000004356000000000458000068000000000000008900000000000040004500000000000000009999123100000010000000000000BRBPACACNOR7139
012026020302BPAC5       010BTGP BANCO  PNA     N2   R$  000000000117800000000011780000000001142000000000115500000000011460000000001143000000000114600060000000000000009000000000000010396500000000000000009999123100000010000000000000BRBPACACNPA0139
012026020302GGBR3       010GERDAU      ON      N1   R$  000000000190200000000019800000000001902000000000195100000000019550000000001947000000000198200312000000000000074700000000000145767800000000000000009999123100000010000000000000BRGGBRACNOR1198
012026020302GGBR4       010GERDAU      PN      N1   R$  000000000227500000000023220000000002274000000000230000000000023040000000002293000000000230421773000000000010723400000000024666177400000000000000009999123100000010000000000000BRGGBRACNPR8198
012026020302PTBL3       010PORTOBELLO  ON      NM   R$  000000000035000000000003540000000000343000000000034900000000003520000000000348000000000035200262000000000000150100000000000052396300000000000000009999123100000010000000000000BRPTBLACNOR8132
012026020302PTNT3       010PETTENATI   ON           R$  000000000084100000000008410000000000841000000000084100000000008410000000000829000000000084100001000000000000000100000000000000084100000000000000009999123100000010000000000000BRPTNTACNOR6044
012026020302PTNT4       010PETTENATI   PN           R$  000000000082900000000008300000000000814000000000082500000000008140000000000820000000000082900076000000000000028500000000000023520700000000000000009999123100000010000000000000BRPTNTACNPR3049
012026020302EGIE3       010ENGIE BRASILON      NM   R$  000000000336000000000034150000000003336000000000337700000000033780000000003377000000000338307484000000000001495400000000005050201300000000000000009999123100000010000000000000BREGIEACNOR9132
012026020302AZEV3       010AZEVEDO     ON           R$  000000000002900000000000300000000000027000000000002800000000000290000000000028000000000002900254000000000001022000000000000029255700000000000000009999123100000010000000000000BRAZEVACNOR0123
012026020302AZEV4       010AZEVEDO     PN           R$  000000000002100000000000220000000000020000000000002000000000000200000000000020000000000002100598000000000003803900000000000079101100000000000000009999123100000010000000000000BRAZEVACNPR7123
012026020302AZTE3       010AZT ENERGIA ON           R$  000000000003600000000000370000000000032000000000003300000000000340000000000033000000000003400990000000000003610800000000000122744400000000000000009999123100000010000000000000BRAZTEACNOR4101
012026020302AZZA3       010AZZAS 2154  ON      NM   R$  000000000265300000000026700000000002605000000000263400000000026410000000002641000000000264209629000000000002457700000000006475044800000000000000009999123100000010000000000000BRAZZAACNOR9104
012026020302BEEF3       010MINERVA     ON      NM   R$  000000000062300000000006350000000000611000000000062700000000006300000000000629000000000063013953000000000010714600000000006726469600000000000000009999123100000010000000000000BRBEEFACNOR6120
012026020302BEES3       010BANESTES    ON  EJ       R$  000000000082600000000008300000000000820000000000082500000000008260000000000823000000000082600080000000000000014400000000000011880600000000000000009999123100000010000000000000BRBEESACNOR9415
012026020302BEES4       010BANESTES    PN  EJ       R$  000000000083200000000008350000000000830000000000083200000000008300000000000830000000000083500025000000000000003800000000000003163900000000000000009999123100000010000000000000BRBEESACNPR6340
012026020302CPFE3       010CPFL ENERGIAON      NM   R$  000000000514800000000051780000000005084000000000511500000000051150000000005114000000000511509316000000000001927700000000009861810400000000000000009999123100000010000000000000BRCPFEACNOR0138
012026020302CPLE3       010COPEL       ON      NM   R$  000000000132400000000013620000000001324000000000134800000000013540000000001353000000000135525433000000000023983200000000032352489000000000000000009999123100000010000000000000BRCPLEACNOR8153
012026020302DASA3       010DASA        ON      NM   R$  000000000044100000000004490000000000428000000000043500000000004290000000000429000000000043401740000000000000982500000000000428358400000000000000009999123100000010000000000000BRDASAACNOR1123
012026020302DESK3       010DESKTOP     ON      NM   R$  000000000141000000000014700000000001407000000000144300000000014700000000001468000000000147003742000000000000892400000000001287786900000000000000009999123100000010000000000000BRDESKACNOR2106
012026020302DEXP3       010DEXXOS PAR  ON      N1   R$  000000000073500000000007560000000000735000000000074700000000007480000000000748000000000075200727000000000000189500000000000141693700000000000000009999123100000010000000000000BRDEXPACNOR1109
012026020302DEXP4       010DEXXOS PAR  PN      N1   R$  000000000074400000000007570000000000744000000000074900000000007500000000000742000000000075000008000000000000002800000000000002098300000000000000009999123100000010000000000000BRDEXPACNPR8109
012026020302DIRR3       010DIRECIONAL  ON      NM   R$  000000000149200000000015430000000001471000000000149900000000014790000000001479000000000148027054000000000012841700000000019262441500000000000000009999123100000010000000000000BRDIRRACNOR0123
012026020302FESA3       010FERBASA     ON      N1   R$  000000000120500000000012400000000001205000000000121700000000012100000000001208000000000122900017000000000000002100000000000002556300000000000000009999123100000010000000000000BRFESAACNOR8194
012026020302FESA4       010FERBASA     PN      N1   R$  000000000082700000000008900000000000827000000000086900000000008690000000000867000000000086904215000000000001938800000000001685088300000000000000009999123100000010000000000000BRFESAACNPR5090
012026020302FHER3       010FER HERINGERON      NM   R$  000000000046900000000004720000000000460000000000046700000000004720000000000460000000000046900025000000000000003900000000000001824900000000000000009999123100000010000000000000BRFHERACNOR5103
012026020302FICT3       010FICTORALIMENON           R$  000000000007200000000000850000000000070000000000007700000000000750000000000074000000000007500392000000000000430500000000000033199900000000000000009999123100000010000000000000BRFICTACNOR3101
012026020302FIQE3       010UNIFIQUE    ON      NM   R$  000000000051500000000005220000000000508000000000051300000000005180000000000516000000000051901789000000000001351300000000000694256300000000000000009999123100000010000000000000BRFIQEACNOR5112
012026020302FLRY3       010FLEURY      ON      NM   R$  000000000170300000000017240000000001685000000000169900000000016950000000001693000000000170009692000000000002324900000000003951738600000000000000009999123100000010000000000000BRFLRYACNOR5143
012026020302CVCB3       010CVC BRASIL  ON      NM   R$  000000000025200000000002570000000000244000000000025000000000002550000000000253000000000025514247000000000044222300000000011061172200000000000000009999123100000010000000000000BRCVCBACNOR1118
012026020302CXSE3       010CAIXA SEGURION      NM   R$  000000000179400000000018350000000001786000000000182200000000018270000000001825000000000182817098000000000005596000000000010201060600000000000000009999123100000010000000000000BRCXSEACNOR7114
012026020302ALPK3       010ESTAPAR     ON      NM   R$  000000000047000000000004770000000000460000000000046900000000004710000000000465000000000047100541000000000000255900000000000120066100000000000000009999123100000010000000000000BRALPKACNOR9101
012026020302ALUP11      010ALUPAR      UNT     N2   R$  000000000333100000000034100000000003330000000000338600000000033960000000003384000000000339706014000000000004624800000000015661763400000000000000009999123100000010000000000000BRALUPCDAM15126
012026020302ALUP3       010ALUPAR      ON      N2   R$  000000000121400000000012550000000001203000000000121900000000012290000000001221000000000124900111000000000000026300000000000032076000000000000000009999123100000010000000000000BRALUPACNOR8126
012026020302ALUP4       010ALUPAR      PN      N2   R$  000000000106700000000010950000000001067000000000107800000000010810000000001070000000000108200144000000000000024000000000000025888600000000000000009999123100000010000000000000BRALUPACNPR5126
012026020302RCSL3       010RECRUSUL    ON           R$  000000000029400000000003010000000000288000000000029500000000002920000000000291000000000029200275000000000000119400000000000035327200000000000000009999123100000010000000000000BRRCSLACNOR4134
012026020302RCSL4       010RECRUSUL    PN           R$  000000000075000000000008120000000000717000000000076100000000007550000000000755000000000075706537000000000003358000000000002556507500000000000000009999123100000010000000000000BRRCSLACNPR1134
012026020302RDOR3       010REDE D OR   ON      NM   R$  000000000442900000000044500000000004221000000000430300000000042640000000004263000000000426522552000000000010035900000000043184954200000000000000009999123100000010000000000000BRRDORACNOR8119
012026020302SAPR11      010SANEPAR     UNT     N2   R$  000000000466000000000047470000000004659000000000470200000000047000000000004700000000000470405484000000000001009900000000004749019700000000000000009999123100000010000000000000BRSAPRCDAM13121
012026020302SAPR3       010SANEPAR     ON      N2   R$  000000000114000000000011700000000001128000000000114300000000011320000000001132000000000114000796000000000000208000000000000237858300000000000000009999123100000010000000000000BRSAPRACNOR9162
012026020302SAPR4       010SANEPAR     PN      N2   R$  000000000087000000000008930000000000870000000000088600000000008860000000000885000000000088603079000000000001503300000000001332670300000000000000009999123100000010000000000000BRSAPRACNPR6162
012026020302SBFG3       010GRUPO SBF   ON      NM   R$  000000000144900000000014740000000001417000000000143300000000014260000000001426000000000142908383000000000003191200000000004574444800000000000000009999123100000010000000000000BRSBFGACNOR1104
012026020302SBSP3       010SABESP      ON      NM   R$  000000001449100000000147850000000014459000000001461900000000145530000000014550000000001456314946000000000003226900000000047176266000000000000000009999123100000010000000000000BRSBSPACNOR5165
012026020302TTEN3       0103TENTOS     ON      NM   R$  000000000168100000000017350000000001662000000000168800000000016760000000001672000000000168209707000000000002135000000000003605570000000000000000009999123100000010000000000000BRTTENACNOR0105
012026020302TUPY3       010TUPY        ON      NM   R$  000000000124100000000012490000000001213000000000122900000000012150000000001215000000000121604948000000000001463300000000001799039700000000000000009999123100000010000000000000BRTUPYACNOR1185
012026020302VVEO3       010VIVEO       ON      NM   R$  000000000014600000000001500000000000142000000000014500000000001430000000000142000000000014300579000000000001118100000000000162734400000000000000009999123100000010000000000000BRVVEOACNOR0104
012026020302GOLL54      010GOL         PN *P   N2   R$  000000000110400000000011370000000001104000000000112900000000011370000000001119000000000113800356000000000840640000000000000949109618000000000000009999123100010000000000000000BRGOLLA01PR5100
012026020302GRND3       010GRENDENE    ON      NM   R$  000000000050500000000005080000000000494000000000049900000000004970000000000497000000000049906794000000000003935600000000001967113100000000000000009999123100000010000000000000BRGRNDACNOR3182
012026020302GUAR3       010GUARARAPES  ON      NM   R$  000000000103400000000010450000000001018000000000102800000000010260000000001024000000000102705501000000000001563600000000001608874500000000000000009999123100000010000000000000BRGUARACNOR4175
012026020302HAGA3       010HAGA S/A    ON           R$  000000000020000000000002190000000000196000000000020400000000002050000000000197000000000020000009000000000000003000000000000000613000000000000000009999123100000010000000000000BRHAGAACNOR7103
012026020302HAGA4       010HAGA S/A    PN           R$  000000000011400000000001210000000000113000000000011800000000001210000000000116000000000012100027000000000000016400000000000001940300000000000000009999123100000010000000000000BRHAGAACNPR4103
012026020302ISAE3       010ISA ENERGIA ON  EJ  N1   R$  000000000345000000000035090000000003410000000000343200000000034210000000003410000000000345800018000000000000003700000000000012701600000000000000009999123100000010000000000000BRISAEACNOR2108
012026020302ISAE4       010ISA ENERGIA PN  EJ  N1   R$  000000000287700000000029250000000002867000000000290300000000029100000000002910000000000292007728000000000002018100000000005860015800000000000000009999123100000010000000000000BRISAEACNPR9108
012026020302LAND3       010TERRASANTAPAON      NM   R$  000000000082100000000008340000000000815000000000082400000000008150000000000813000000000081500147000000000000024800000000000020444500000000000000009999123100000010000000000000BRLANDACNOR9104
012026020302LAVV3       010LAVVI       ON  ED  NM   R$  000000000168900000000017390000000001680000000000170900000000017200000000001710000000000172003827000000000001114800000000001905305300000000000000009999123100000010000000000000BRLAVVACNOR4120
012026020302CLSC4       010CELESC      PN      N2   R$  000000001429900000000142990000000013800000000001402800000000139990000000013837000000001399900028000000000000002800000000000039278600000000000000009999123100000010000000000000BRCLSCACNPR3138
012026020302CMIG3       010CEMIG       ON      N1   R$  000000000153000000000015420000000001526000000000153500000000015290000000001529000000000153900533000000000000184700000000000283564400000000000000009999123100000010000000000000BRCMIGACNOR6251
012026020302CMIG4       010CEMIG       PN      N1   R$  000000000116800000000011870000000001160000000000117700000000011840000000001182000000000118415546000000000011215300000000013202300700000000000000009999123100000010000000000000BRCMIGACNPR3252
012026020302CSUD3       010CSU DIGITAL ON      NM   R$  000000000189000000000019040000000001847000000000187500000000018900000000001881000000000189000266000000000000062200000000000116650500000000000000009999123100000010000000000000BRCSUDACNOR5117
012026020302CTKA4       010KARSTEN     PN           R$  000000000426400000000046990000000004264000000000436800000000046800000000004425000000000468000013000000000000005300000000000023153100000000000000009999123100000010000000000000BRCTKAACNPR7043
012026020302LEVE3       010METAL LEVE  ON      NM   R$  000000000347100000000035250000000003461000000000350300000000035250000000003500000000000352502691000000000000512000000000001793790500000000000000009999123100000010000000000000BRLEVEACNOR2202
012026020302LJQQ3       010QUERO-QUERO ON      NM   R$  000000000025200000000002590000000000248000000000025400000000002560000000000252000000000025603468000000000002446000000000000621302000000000000000009999123100000010000000000000BRLJQQACNOR5105
012026020302MRVE3       010MRV         ON      NM   R$  000000000084500000000008610000000000837000000000084800000000008410000000000841000000000084209774000000000007609500000000006456778100000000000000009999123100000010000000000000BRMRVEACNOR2128
012026020302RAIZ4       010RAIZEN      PN      N2   R$  000000000009500000000001010000000000094000000000009800000000000980000000000097000000000009812669000000000026229400000000002582866000000000000000009999123100000010000000000000BRRAIZACNPR6112
012026020302SANB11      010SANTANDER BRUNT          R$  000000000370000000000037580000000003555000000000366200000000035940000000003594000000000359621495000000000005841900000000021393758600000000000000009999123100000010000000000000BRSANBCDAM13172
012026020302SANB3       010SANTANDER BRON           R$  000000000182000000000018590000000001760000000000182300000000017730000000001772000000000178600675000000000000089800000000000163772400000000000000009999123100000010000000000000BRSANBACNOR8179
012026020302SANB4       010SANTANDER BRPN           R$  000000000183600000000018950000000001797000000000185700000000018060000000001805000000000180600956000000000000145900000000000271031300000000000000009999123100000010000000000000BRSANBACNPR5179
012026020302VBBR3       010VIBRA       ON      NM   R$  000000000298500000000030560000000002966000000000301500000000030150000000003015000000000301824709000000000010081900000000030401924200000000000000009999123100000010000000000000BRVBBRACNOR1114
012026020302SMTO3       010SAO MARTINHOON      NM   R$  000000000158400000000016100000000001570000000000159100000000015880000000001587000000000159510888000000000003844500000000006118565500000000000000009999123100000010000000000000BRSMTOACNOR3129
012026020302SNSY5       010SANSUY      PNA          R$  000000000028900000000002890000000000281000000000028800000000002810000000000280000000000028700004000000000000001200000000000000346000000000000000009999123100000010000000000000BRSNSYACNPA5111
012026020302SOJA3       010BOA SAFRA   ON      NM   R$  000000000089000000000009050000000000883000000000089300000000008840000000000884000000000089101870000000000000962500000000000859517300000000000000009999123100000010000000000000BRSOJAACNOR9109
012026020302BGIP4       010BANESE      PN           R$  000000000359900000000035990000000003510000000000354800000000035590000000003516000000000356000006000000000000000600000000000002128900000000000000009999123100000010000000000000BRBGIPACNPR8215
012026020302BHIA3       010CASAS BAHIA ON      NM   R$  000000000031800000000003250000000000314000000000031800000000003190000000000315000000000031903409000000000003628200000000001156372000000000000000009999123100000010000000000000BRBHIAACNOR1104
012026020302PSSA3       010PORTO SEGUROON      NM   R$  000000000519600000000052460000000005121000000000518600000000051750000000005175000000000517611653000000000002661300000000013802678800000000000000009999123100000010000000000000BRPSSAACNOR7161
012026020302SCAR3       010SAO CARLOS  ON      NM   R$  000000000153900000000015690000000001538000000000155400000000015650000000001540000000000156500132000000000000023600000000000036675400000000000000009999123100000010000000000000BRSCARACNOR7133
012026020302SEER3       010SER EDUCA   ON      NM   R$  000000000126600000000012830000000001220000000000124900000000012520000000001249000000000125207117000000000001811400000000002263676400000000000000009999123100000010000000000000BRSEERACNOR5120
012026020302SEQL3       010SEQUOIA LOG ON      NM   R$  000000000013100000000001390000000000125000000000013100000000001290000000000128000000000012900847000000000000478400000000000062722900000000000000009999123100000010000000000000BRSEQLACNOR2108
012026020302BIED3       010BIOMA EDUC  ON      MA   R$  000000000046000000000004900000000000455000000000045900000000004900000000000459000000000048800014000000000000005900000000000002713900000000000000009999123100000010000000000000BRBIEDACNOR2101
012026020302BIOM3       010BIOMM       ON      MA   R$  000000000067000000000006810000000000636000000000065400000000006360000000000636000000000064600380000000000000115600000000000075672000000000000000009999123100000010000000000000BRBIOMACNOR2113
012026020302BRBI11      010BR PARTNERS UNT     N2   R$  000000000205700000000021730000000002057000000000213600000000021250000000002125000000000213504131000000000000565900000000001209058600000000000000009999123100000010000000000000BRBRBICDAM10116
012026020302BRKM3       010BRASKEM     ON      N1   R$  000000000087800000000009340000000000878000000000090400000000009040000000000904000000000091300119000000000000023000000000000020812900000000000000009999123100000010000000000000BRBRKMACNOR1119
012026020302BRKM5       010BRASKEM     PNA ATZ N1   R$  000000000091600000000009490000000000913000000000092900000000009250000000000925000000000092806225000000000003283100000000003050379100000000000000009999123100000010000000000000BRBRKMACNPA4123
012026020302CRPG5       010CRISTAL     PNA          R$  000000000194700000000019900000000001925000000000195600000000019700000000001930000000000197400021000000000000004100000000000008021900000000000000009999123100000010000000000000BRCRPGACNPA3119
012026020302CRPG6       010CRISTAL     PNB          R$  000000000192900000000019470000000001929000000000193800000000019470000000001871000000000194800002000000000000000200000000000000387600000000000000009999123100000010000000000000BRCRPGACNPB1119
012026020302CSAN3       010COSAN       ON      NM   R$  000000000059000000000006100000000000586000000000059900000000005990000000000599000000000060022902000000000039603600000000023736126000000000000000009999123100000010000000000000BRCSANACNOR6128
012026020302DMVF3       010D1000VFARMA ON      NM   R$  000000000069600000000006960000000000679000000000068500000000006800000000000679000000000068000358000000000000103200000000000070751900000000000000009999123100000010000000000000BRDMVFACNOR9100
012026020302DOHL4       010DOHLER      PN           R$  000000000039700000000004050000000000384000000000039400000000003840000000000385000000000039300012000000000000003500000000000001382300000000000000009999123100000010000000000000BRDOHLACNPR9067
012026020302CAMB3       010CAMBUCI     ON           R$  000000000096000000000009670000000000942000000000095300000000009420000000000942000000000094700259000000000000052200000000000049797500000000000000009999123100000010000000000000BRCAMBACNOR4136
012026020302CAML3       010CAMIL       ON      NM   R$  000000000068000000000006980000000000680000000000069000000000006930000000000690000000000069305695000000000001657600000000001144158700000000000000009999123100000010000000000000BRCAMLACNOR3134
012026020302CASH3       010MELIUZ      ON      NM   R$  000000000037800000000003840000000000370000000000037600000000003720000000000372000000000037403300000000000002253500000000000849126300000000000000009999123100000010000000000000BRCASHACNOR8107
012026020302CBAV3       010CBA         ON      NM   R$  000000000102700000000010340000000001014000000000102000000000010200000000001020000000000102110682000000000037824600000000038593595600000000000000009999123100000010000000000000BRCBAVACNOR5104
012026020302DOTZ3       010DOTZ SA     ON      NM   R$  000000000037500000000003790000000000367000000000037200000000003710000000000368000000000037100055000000000000011500000000000004281300000000000000009999123100000010000000000000BRDOTZACNOR7101
012026020302DXCO3       010DEXCO       ON      NM   R$  000000000057000000000005850000000000570000000000057600000000005750000000000574000000000057503249000000000002227800000000001284938600000000000000009999123100000010000000000000BRDXCOACNOR8108
012026020302CEAB3       010CEA MODAS   ON      NM   R$  000000000126700000000013090000000001243000000000126900000000012500000000001249000000000125225649000000000014155600000000017973392100000000000000009999123100000010000000000000BRCEABACNOR1105
012026020302CSNA3       010SID NACIONALON           R$  000000000101000000000010440000000001000000000000102700000000010370000000001034000000000103813541000000000010266600000000010550178600000000000000009999123100000010000000000000BRCSNAACNOR6263
012026020302AERI3       010AERIS       ON      NM   R$  000000000031500000000003190000000000311000000000031400000000003180000000000314000000000031800143000000000000029200000000000009190000000000000000009999123100000010000000000000BRAERIACNOR4102
012026020302EALT3       010ACO ALTONA  ON           R$  000000000145000000000014570000000001425000000000145000000000014560000000001418000000000145600009000000000000003100000000000004495800000000000000009999123100000010000000000000BREALTACNOR4140
012026020302EALT4       010ACO ALTONA  PN           R$  000000000146000000000014750000000001435000000000146800000000014750000000001464000000000147500078000000000000016300000000000023939100000000000000009999123100000010000000000000BREALTACNPR1140
012026020302ECOR3       010ECORODOVIAS ON      NM   R$  000000000112000000000011510000000001120000000000112300000000011380000000001133000000000113923208000000000061643600000000069274114000000000000000009999123100000010000000000000BRECORACNOR8122
012026020302VITT3       010VITTIA      ON      NM   R$  000000000045100000000004590000000000442000000000044700000000004420000000000441000000000044200861000000000000172900000000000077305000000000000000009999123100000010000000000000BRVITTACNOR4113
012026020302VIVA3       010VIVARA S.A. ON      NM   R$  000000000289000000000029220000000002835000000000289700000000028820000000002882000000000288315430000000000008408900000000024361584400000000000000009999123100000010000000000000BRVIVAACNOR0109
012026020302NUTR3       010NUTRIPLANT  ON      MA   R$  000000000025100000000002550000000000247000000000025200000000002550000000000251000000000025500015000000000000001900000000000000479700000000000000009999123100000010000000000000BRNUTRACNOR0104
012026020302OBTC3       010ORANJEBTC   ON           R$  000000000076500000000007650000000000685000000000070500000000007080000000000708000000000071202361000000000000784900000000000553899300000000000000009999123100000010000000000000BROBTCACNOR0100
012026020302ODPV3       010ODONTOPREV  ON      NM   R$  000000000121500000000012220000000001196000000000121000000000012170000000001215000000000121806033000000000002119400000000002564642700000000000000009999123100000010000000000000BRODPVACNOR4213
012026020302REDE3       010REDE ENERGIAON           R$  000000000062200000000006250000000000619000000000062100000000006250000000000620000000000062400009000000000000001900000000000001181700000000000000009999123100000010000000000000BRREDEACNOR7134
012026020302RENT3       010LOCALIZA    ON      NM   R$  000000000499000000000051480000000004985000000000506200000000050650000000005064000000000507230097000000000009659700000000048901187900000000000000009999123100000010000000000000BRRENTACNOR4205
012026020302CURY3       010CURY S/A    ON      NM   R$  000000000365100000000037520000000003640000000000367600000000036400000000003640000000000364109590000000000002685100000000009872220900000000000000009999123100000010000000000000BRCURYACNOR3115
012026020302ALLD3       010ALLIED      ON  EJ  NM   R$  000000000079900000000008050000000000793000000000079800000000007960000000000795000000000079601518000000000000561200000000000447846100000000000000009999123100000010000000000000BRALLDACNOR3110
012026020302ALOS3       010ALLOS       ON      NM   R$  000000000314900000000031990000000003146000000000317300000000031650000000003163000000000316525035000000000009378500000000029762591900000000000000009999123100000010000000000000BRALOSACNOR5118
012026020302ALPA3       010ALPARGATAS  ON      N1   R$  000000000114900000000012000000000001149000000000118800000000011940000000001193000000000119900103000000000000020100000000000023883700000000000000009999123100000010000000000000BRALPAACNOR0234
012026020302ALPA4       010ALPARGATAS  PN      N1   R$  000000000147500000000015040000000001469000000000148100000000014800000000001479000000000148604458000000000004755700000000007047723000000000000000009999123100000010000000000000BRALPAACNPR7235
012026020302RENT4       010LOCALIZA    PN      NM   R$  000000000484300000000049830000000004843000000000489900000000049350000000004908000000000493501351000000000000218000000000001067982200000000000000009999123100000010000000000000BRRENTACNPR1100
012026020302HBOR3       010HELBOR      ON      NM   R$  000000000027400000000002840000000000272000000000027800000000002780000000000277000000000027802042000000000000797000000000000221653700000000000000009999123100000010000000000000BRHBORACNOR3120
012026020302HBRE3       010HBR REALTY  ON      NM   R$  000000000035500000000003650000000000351000000000035700000000003610000000000360000000000036102178000000000001023100000000000366084000000000000000009999123100000010000000000000BRHBREACNOR4101
012026020302HBSA3       010HIDROVIAS   ON      NM   R$  000000000040300000000004120000000000399000000000040500000000003990000000000399000000000040301725000000000001539200000000000623951000000000000000009999123100000010000000000000BRHBSAACNOR0102
012026020302HETA4       010HERCULES    PN           R$  000000000050000000000005000000000000500000000000050000000000005000000000000471000000000056000001000000000000000200000000000000100000000000000000009999123100000010000000000000BRHETAACNPR9136
012026020302ITUB3       010ITAUUNIBANCOON  EJ  N1   R$  000000000430000000000043620000000004286000000000432100000000042880000000004288000000000429403760000000000001131400000000004888918400000000000000009999123100000010000000000000BRITUBACNOR4365
012026020302ITUB4       010ITAUUNIBANCOPN  EJ  N1   R$  000000000463000000000046980000000004589000000000463600000000046140000000004610000000000461652276000000000048570600000000225192566000000000000000009999123100000010000000000000BRITUBACNPR1365
012026020302MYPK3       010IOCHP-MAXIONON      NM   R$  000000000108900000000011050000000001070000000000108500000000010750000000001074000000000108306611000000000001631000000000001770167700000000000000009999123100000010000000000000BRMYPKACNOR7158
012026020302NATU3       010NATURA      ON      NM   R$  000000000088300000000009260000000000873000000000089700000000008950000000000888000000000089513852000000000009302100000000008349510300000000000000009999123100000010000000000000BRNATUACNOR6137
012026020302LUPA3       010LUPATECH    ON      NM   R$  000000000012000000000001200000000000117000000000011900000000001190000000000119000000000012000058000000000000104500000000000012451800000000000000009999123100000010000000000000BRLUPAACNOR8112
012026020302LUXM4       010TREVISA     PN           R$  000000000042100000000004600000000000420000000000043700000000004400000000000430000000000044000023000000000000010500000000000004594800000000000000009999123100000010000000000000BRLUXMACNPR4053
012026020302LWSA3       010LWSA        ON      NM   R$  000000000049700000000005020000000000475000000000048300000000004810000000000481000000000048207207000000000004825300000000002332911400000000000000009999123100000010000000000000BRLWSAACNOR8105
012026020302RECV3       010PETRORECSA  ON      NM   R$  000000000110600000000011250000000001104000000000111700000000011160000000001116000000000111908172000000000002953700000000003299702500000000000000009999123100000010000000000000BRRECVACNOR3110
012026020302HAPV3       010HAPVIDA     ON      NM   R$  000000000128800000000013260000000001280000000000129900000000012800000000001280000000000128411717000000000007672400000000009968132200000000000000009999123100000010000000000000BRHAPVACNOR4119
012026020302ITSA3       010ITAUSA      ON      N1   R$  000000000139800000000014210000000001398000000000140700000000013990000000001398000000000140700516000000000000109900000000000154699900000000000000009999123100000010000000000000BRITSAACNOR0455
012026020302ITSA4       010ITAUSA      PN      N1   R$  000000000140000000000014200000000001394000000000140400000000014010000000001399000000000140128046000000000034885200000000048989309800000000000000009999123100000010000000000000BRITSAACNPR7455
012026020302LOGG3       010LOG COM PROPON      NM   R$  000000000284900000000028870000000002831000000000285800000000028420000000002842000000000285302230000000000000314200000000000898026900000000000000009999123100000010000000000000BRLOGGACNOR7112
012026020302LOGN3       010LOG-IN      ON      NM   R$  000000000325100000000032680000000003237000000000325200000000032450000000003245000000000325500071000000000000009100000000000029597100000000000000009999123100000010000000000000BRLOGNACNOR3105
012026020302LPSB3       010LOPES BRASILON      NM   R$  000000000018000000000001870000000000180000000000018300000000001860000000000185000000000018600396000000000000321200000000000058984000000000000000009999123100000010000000000000BRLPSBACNOR0116
012026020302LREN3       010LOJAS RENNERON      NM   R$  000000000152700000000015680000000001527000000000155000000000015590000000001557000000000155919428000000000012707500000000019707004500000000000000009999123100000010000000000000BRLRENACNOR1228
012026020302MTRE3       010MITRE REALTYON  ED  NM   R$  000000000040000000000004120000000000399000000000040600000000004070000000000404000000000040700844000000000001280600000000000519924900000000000000009999123100000010000000000000BRMTREACNOR6131
012026020302MULT3       010MULTIPLAN   ON      N2   R$  000000000333500000000033560000000003286000000000330500000000033020000000003301000000000331020661000000000005192900000000017165314000000000000000009999123100000010000000000000BRMULTACNOR5145
012026020302POSI3       010POSITIVO TECON      NM   R$  000000000045700000000004720000000000454000000000046500000000004720000000000469000000000047203821000000000001762300000000000820732600000000000000009999123100000010000000000000BRPOSIACNOR9118
012026020302PRIO3       010PETRORIO    ON      NM   R$  000000000509900000000052660000000005099000000000517100000000051500000000005150000000000515132777000000000008827300000000045651601200000000000000009999123100000010000000000000BRPRIOACNOR1111
012026020302RANI3       010IRANI       ON      NM   R$  000000000091200000000009360000000000912000000000092200000000009240000000000917000000000092402208000000000000697600000000000643748200000000000000009999123100000010000000000000BRRANIACNOR5079
012026020302RAPT3       010RANDON PART ON      N1   R$  000000000066300000000006640000000000646000000000065300000000006460000000000646000000000065400045000000000000017800000000000011639300000000000000009999123100000010000000000000BRRAPTACNOR7166
012026020302RAPT4       010RANDON PART PN      N1   R$  000000000064700000000006640000000000642000000000065000000000006490000000000649000000000065010310000000000006831700000000004446462000000000000000009999123100000010000000000000BRRAPTACNPR4166
012026020302TEND3       010TENDA       ON      NM   R$  000000000283700000000028970000000002818000000000287000000000028800000000002880000000000288209202000000000001677400000000004814769100000000000000009999123100000010000000000000BRTENDACNOR4114
012026020302TFCO4       010TRACK FIELD PN      N2   R$  000000000155900000000016580000000001559000000000161100000000016150000000001607000000000161704943000000000001229300000000001980971300000000000000009999123100000010000000000000BRTFCOACNPR8121
012026020302TGMA3       010TEGMA       ON      NM   R$  000000000394900000000040390000000003949000000000400900000000040080000000004005000000000400801402000000000000189300000000000759011100000000000000009999123100000010000000000000BRTGMAACNOR7150
012026020302TIMS3       010TIM         ON      NM   R$  000000000249000000000025170000000002466000000000250200000000025100000000002500000000000251113244000000000008555000000000021407695700000000000000009999123100000010000000000000BRTIMSACNOR5129
012026020302TOKY3       010GRUPO TOKY  ON      NM   R$  000000000006100000000000690000000000061000000000006300000000000660000000000066000000000006700301000000000001036600000000000065539800000000000000009999123100000010000000000000BRTOKYACNOR5101
012026020302BALM4       010BAUMER      PN           R$  000000000204400000000020440000000001980000000000202100000000020140000000001960000000000201500006000000000000000900000000000001818900000000000000009999123100000010000000000000BRBALMACNPR2060
012026020302BAZA3       010AMAZONIA    ON           R$  000000000851500000000085800000000008500000000000852700000000085790000000008525000000000860000028000000000000004600000000000039228600000000000000009999123100000010000000000000BRBAZAACNOR0180
012026020302BBAS3       010BRASIL      ON      NM   R$  000000000254800000000026090000000002547000000000257700000000025690000000002568000000000257034909000000000035191200000000090699142700000000000000009999123100000010000000000000BRBBASACNOR3334
012026020302CEBR3       010CEB         ON           R$  000000000319900000000032490000000003164000000000319400000000032100000000003210000000000322500034000000000000005200000000000016610200000000000000009999123100000010000000000000BRCEBRACNOR5129
012026020302CEBR5       010CEB         PNA          R$  000000000279000000000028690000000002753000000000279500000000027990000000002769000000000280000013000000000000004700000000000013137000000000000000009999123100000010000000000000BRCEBRACNPA8128
012026020302CEBR6       010CEB         PNB          R$  000000000297100000000030190000000002961000000000300300000000029820000000002980000000000300500024000000000000003400000000000010213400000000000000009999123100000010000000000000BRCEBRACNPB6128
012026020302CEEB3       010COELBA      ON           R$  000000000474400000000047450000000004500000000000467400000000046260000000004625000000000474500011000000000000001400000000000006544600000000000000009999123100000010000000000000BRCEEBACNOR3207
012026020302CGAS5       010COMGAS      PNA          R$  000000001319000000000139960000000013190000000001346100000000135940000000013209000000001355800006000000000000000600000000000008076900000000000000009999123100000010000000000000BRCGASACNPA3165
012026020302CGRA3       010GRAZZIOTIN  ON           R$  000000000280000000000028000000000002672000000000275000000000026720000000002671000000000280000012000000000000001500000000000004125700000000000000009999123100000010000000000000BRCGRAACNOR2088
012026020302CGRA4       010GRAZZIOTIN  PN           R$  000000000270200000000027700000000002702000000000275300000000027490000000002726000000000274900058000000000000009700000000000026705300000000000000009999123100000010000000000000BRCGRAACNPR9088
012026020302TOTS3       010TOTVS       ON      NM   R$  000000000451200000000045570000000004326000000000443000000000043600000000004339000000000436128851000000000007312800000000032396429300000000000000009999123100000010000000000000BRTOTSACNOR8150
012026020302VIVR3       010VIVER       ON      NM   R$  000000000006300000000000660000000000062000000000006300000000000620000000000062000000000006300095000000000000109500000000000006961000000000000000009999123100000010000000000000BRVIVRACNOR4125
012026020302VIVT3       010TELEF BRASILON           R$  000000000379500000000038550000000003738000000000382800000000038530000000003838000000000385315282000000000004939000000000018907408800000000000000009999123100000010000000000000BRVIVTACNOR0199
012026020302VLID3       010VALID       ON      NM   R$  000000000224900000000022610000000002211000000000222900000000022170000000002217000000000223102446000000000000317800000000000708652500000000000000009999123100000010000000000000BRVLIDACNOR5148
012026020302VSTE3       010VESTE       ON      NM   R$  000000000037200000000003720000000000367000000000036900000000003690000000000366000000000036800045000000000000041600000000000015352700000000000000009999123100000010000000000000BRVSTEACNOR5104
012026020302VTRU3       010VITRUEDUCA  ON      NM   R$  000000000169400000000017240000000001664000000000169700000000016640000000001664000000000167503252000000000000857100000000001455123700000000000000009999123100000010000000000000BRVTRUACNOR3101
012026020302VULC3       010VULCABRAS   ON      NM   R$  000000000181000000000018360000000001797000000000181600000000018080000000001808000000000181109583000000000003006700000000005462287900000000000000009999123100000010000000000000BRVULCACNOR2181
012026020302AMAR3       010LOJAS MARISAON      NM   R$  000000000009800000000000980000000000097000000000009700000000000970000000000097000000000009800288000000000000111600000000000010862900000000000000009999123100000010000000000000BRAMARACNOR4115
012026020302AMOB3       010AUTOMOB     ON      NM   R$  000000000134600000000014160000000001341000000000138400000000014000000000001400000000000141500328000000000000065900000000000091222600000000000000009999123100000010000000000000BRAMOBACNOR9101
012026020302ANIM3       010ANIMA       ON      NM   R$  000000000051900000000005260000000000476000000000048900000000004850000000000484000000000048512386000000000017498300000000008569488000000000000000009999123100000010000000000000BRANIMACNOR6110
012026020302WDCN3       010WDC NETWORKSON      NM   R$  000000000027100000000002710000000000264000000000026800000000002700000000000267000000000027000062000000000000024700000000000006630000000000000000009999123100000010000000000000BRWDCNACNOR2100
012026020302WEGE3       010WEG         ON      NM   R$  000000000528300000000054000000000005224000000000535100000000054000000000005388000000000540023174000000000006917500000000037021799800000000000000009999123100000010000000000000BRWEGEACNOR0234
012026020302TASA3       010TAURUS ARMASON      N2   R$  000000000054700000000005590000000000545000000000055100000000005510000000000551000000000055500102000000000000030100000000000016602200000000000000009999123100000010000000000000BRTASAACNOR7106
012026020302TASA4       010TAURUS ARMASPN      N2   R$  000000000054000000000005530000000000536000000000054400000000005500000000000550000000000055100895000000000000418200000000000227605500000000000000009999123100000010000000000000BRTASAACNPR4106
012026020302TCSA3       010TECNISA     ON      NM   R$  000000000016400000000001710000000000161000000000016700000000001630000000000163000000000016400272000000000000205200000000000034391300000000000000009999123100000010000000000000BRTCSAACNOR3112
012026020302TECN3       010TECHNOS     ON      NM   R$  000000000081000000000008220000000000800000000000081200000000008190000000000816000000000081900174000000000000042700000000000034694800000000000000009999123100000010000000000000BRTECNACNOR6111
012026020302SYNE3       010SYN PROP TECON      NM   R$  000000000049900000000005040000000000497000000000049900000000004980000000000498000000000050102012000000000000465800000000000232807500000000000000009999123100000010000000000000BRSYNEACNOR2107
012026020302ARML3       010ARMAC       ON      NM   R$  000000000047200000000004890000000000472000000000048100000000004840000000000480000000000048402140000000000001099000000000000529576900000000000000009999123100000010000000000000BRARMLACNOR1117
012026020302ARND3       010ARANDU      ON      NM   R$  000000000008000000000000800000000000080000000000008000000000000800000000000079000000000008000001000000000000000100000000000000008000000000000000009999123100000010000000000000BRARNDACNOR6100
012026020302ASAI3       010ASSAI       ON      NM   R$  000000000088000000000009000000000000874000000000088700000000008850000000000884000000000088614250000000000023504000000000020860131500000000000000009999123100000010000000000000BRASAIACNOR0109
012026020302ATED3       010ATOM EDUC   ON           R$  000000000020500000000002100000000000205000000000020700000000002060000000000205000000000021000024000000000000022600000000000004698200000000000000009999123100000010000000000000BRATEDACNOR1100
012026020302AUAU3       010PETZCOBASI  ON      NM   R$  000000000033900000000003450000000000336000000000034100000000003370000000000337000000000033902580000000000004395800000000001499482500000000000000009999123100000010000000000000BRAUAUACNOR1100
012026020302BBSE3       010BBSEGURIDADEON      NM   R$  000000000381500000000038610000000003805000000000383000000000038290000000003828000000000382915412000000000005279500000000020224699400000000000000009999123100000010000000000000BRBBSEACNOR5127
012026020302BRAP3       010BRADESPAR   ON      N1   R$  000000000209900000000021600000000002089000000000212700000000021600000000002149000000000216000539000000000000119700000000000254622900000000000000009999123100000010000000000000BRBRAPACNOR5153
012026020302BRAP4       010BRADESPAR   PN      N1   R$  000000000243200000000025200000000002427000000000249100000000025180000000002515000000000251810633000000000003439400000000008570220500000000000000009999123100000010000000000000BRBRAPACNPR2153
012026020302CMIN3       010CSNMINERACAOON      N2   R$  000000000060400000000006180000000000603000000000061000000000006170000000000615000000000061707604000000000006396200000000003907574100000000000000009999123100000010000000000000BRCMINACNOR2116
012026020302TAEE11      010TAESA       UNT     N2   R$  000000000422700000000042960000000004215000000000424500000000042380000000004228000000000423807851000000000001651200000000007010243200000000000000009999123100000010000000000000BRTAEECDAM10153
012026020302TAEE3       010TAESA       ON      N2   R$  000000000139900000000014190000000001390000000000140200000000013940000000001394000000000140000404000000000000065100000000000091328200000000000000009999123100000010000000000000BRTAEEACNOR9153
012026020302TAEE4       010TAESA       PN      N2   R$  000000000142000000000014390000000001415000000000142500000000014250000000001421000000000142500507000000000000108200000000000154201600000000000000009999123100000010000000000000BRTAEEACNPR6153
012026020302AFLT3       010AFLUENTE T  ON           R$  000000000073000000000007300000000000726000000000072800000000007260000000000728000000000074000002000000000000000200000000000000145600000000000000009999123100000010000000000000BRAFLTACNOR1126
012026020302AGRO3       010BRASILAGRO  ON      NM   R$  000000000213100000000021840000000002126000000000215300000000021420000000002142000000000214801471000000000000215800000000000464622400000000000000009999123100000010000000000000BRAGROACNOR7116
012026020302B3SA3       010B3          ON      NM   R$  000000000165900000000016780000000001625000000000164900000000016450000000001645000000000164662687000000000042608900000000070293212700000000000000009999123100000010000000000000BRB3SAACNOR6140
012026020302BLAU3       010BLAU        ON      NM   R$  000000000101500000000010440000000001015000000000103200000000010440000000001044000000000104506711000000000001188000000000001226948400000000000000009999123100000010000000000000BRBLAUACNOR8120
012026020302BMEB3       010MERCANTIL   ON      N1   R$  000000000610000000000062500000000006100000000000617500000000061550000000006101000000000625000025000000000000003900000000000024084200000000000000009999123100000010000000000000BRBMEBACNOR8210
012026020302BMEB4       010MERCANTIL   PN      N1   R$  000000000752000000000078970000000007484000000000776800000000078660000000007702000000000786600240000000000000043300000000000336387600000000000000009999123100000010000000000000BRBMEBACNPR5215
012026020302BMGB4       010BANCO BMG   PN  ES  N1   R$  000000000049600000000005080000000000493000000000049800000000004980000000000497000000000049802266000000000001645800000000000821054400000000000000009999123100000010000000000000BRBMGBACNPR0118
012026020302BMIN4       010MERC INVEST PN           R$  000000000193300000000019330000000001933000000000193300000000019330000000001932000000000207500001000000000000000100000000000000193300000000000000009999123100000010000000000000BRBMINACNPR1177
012026020302BMKS3       010BIC MONARK  ON           R$  000000003785200000000386910000000037751000000003816800000000386500000000037701000000003869100058000000000000000237000000000009045851000000000000009999123100000010000000000000BRBMKSACNOR9169
012026020302BMOB3       010BEMOBI TECH ON      NM   R$  000000000251900000000025390000000002457000000000249500000000024570000000002457000000000247001868000000000000375400000000000936742200000000000000009999123100000010000000000000BRBMOBACNOR7107
012026020302BNBR3       010NORD BRASIL ON           R$  000000001237500000000123750000000012250000000001230800000000123000000000012100000000001230000003000000000000000300000000000003692500000000000000009999123100000010000000000000BRBNBRACNOR8211
012026020302BRSR3       010BANRISUL    ON      N1   R$  000000000192500000000019510000000001910000000000192500000000019150000000001915000000000192100078000000000000009600000000000018480800000000000000009999123100000010000000000000BRBRSRACNOR3197
012026020302BRSR6       010BANRISUL    PNB     N1   R$  000000000187100000000019030000000001840000000000187400000000018630000000001860000000000187108395000000000002266900000000004250030500000000000000009999123100000010000000000000BRBRSRACNPB4200
012026020302BRST3       010BRISANET    ON      NM   R$  000000000033300000000003410000000000328000000000033500000000003380000000000332000000000033801041000000000000602500000000000201894600000000000000009999123100000010000000000000BRBRSTACNOR9102
012026020302BSLI3       010BRB BANCO   ON           R$  000000000054900000000005490000000000514000000000052000000000005140000000000511000000000051500063000000000000014600000000000007602500000000000000009999123100000010000000000000BRBSLIACNOR5198
012026020302BSLI4       010BRB BANCO   PN           R$  000000000056200000000005680000000000555000000000056100000000005550000000000555000000000056000035000000000000005900000000000003310400000000000000009999123100000010000000000000BRBSLIACNPR2198
012026020302CSED3       010CRUZEIRO EDUON      NM   R$  000000000070400000000007240000000000686000000000070300000000006910000000000687000000000069101530000000000000450100000000000316760900000000000000009999123100000010000000000000BRCSEDACNOR9107
012026020302CSMG3       010COPASA      ON      NM   R$  000000000530000000000054790000000005238000000000536400000000054500000000005447000000000545017393000000000004081500000000021894796100000000000000009999123100000010000000000000BRCSMGACNOR5183
012026020302EKTR3       010ELEKTRO     ON           R$  000000000489000000000048900000000004890000000000489000000000048900000000002190000000000488000001000000000000000100000000000000489000000000000000009999123100000010000000000000BREKTRACNOR0174
012026020302EKTR4       010ELEKTRO     PN           R$  000000000390000000000039110000000003900000000000390000000000039000000000003880000000000391000006000000000000001300000000000005071100000000000000009999123100000010000000000000BREKTRACNPR7174
012026020302EMAE4       010EMAE        PN           R$  000000000481500000000048690000000004567000000000470300000000047900000000004706000000000480500040000000000000006100000000000028688500000000000000009999123100000010000000000000BREMAEACNPR1128
012026020302EMBJ3       010EMBRAER     ON      NM   R$  000000000983100000000098500000000009501000000000961300000000095750000000009570000000000957620951000000000004182900000000040212427200000000000000009999123100000010000000000000BREMBJACNOR1102
012026020302AALR3       010ALLIAR      ON      NM   R$  000000000044700000000004470000000000422000000000043300000000004220000000000420000000000042400112000000000000072700000000000031508600000000000000009999123100000010000000000000BRAALRACNOR6104
012026020302ABCB4       010ABC BRASIL  PN      N2   R$  000000000272000000000027560000000002712000000000273500000000027240000000002721000000000272403749000000000000709100000000001939908500000000000000009999123100000010000000000000BRABCBACNPR4150
012026020302ABEV3       010AMBEV S/A   ON           R$  000000000151400000000015390000000001508000000000153000000000015380000000001537000000000153927465000000000032249800000000049360797300000000000000009999123100000010000000000000BRABEVACNOR1134
012026020302BBDC3       010BRADESCO    ON  EJ  N1   R$  000000000187800000000018970000000001853000000000187100000000018600000000001858000000000186508971000000000006107300000000011430121100000000000000009999123100000010000000000000BRBBDCACNOR1797
012026020302BBDC4       010BRADESCO    PN  EJ  N1   R$  000000000218000000000022120000000002157000000000218000000000021680000000002166000000000216829601000000000024905100000000054302324500000000000000009999123100000010000000000000BRBBDCACNPR8797
012026020307TXRX4       010TEX RENAUX  PN           R$  000000000019100000000001910000000000190000000000019000000000001900000000000157000000000019100002000000000000000200000000000000038100000000000000009999123100000010000000000000BRTXRXACNPR0142
012026020308BDLL4       010BARDELLA    PN           R$  000000000058500000000005850000000000585000000000058500000000005850000000000586000000000068000001000000000000000100000000000000058500000000000000009999123100000010000000000000BRBDLLACNPR8151
012026020308NEXP3       010NEXPE       ON           R$  000000000028200000000002820000000000282000000000028200000000002820000000000285000000000030200005000000000000000600000000000000169200000000000000009999123100000010000000000000BRNEXPACNOR0101
012026020308RPMG3       010PET MANGUINHON           R$  000000000020900000000002090000000000208000000000020800000000002080000000000208000000000021400006000000000000005500000000000001148700000000000000009999123100000010000000000000BRRPMGACNOR9194
012026020308RSID3       010ROSSI RESID ON      NM   R$  000000000017000000000001700000000000170000000000017000000000001700000000000170000000000017400004000000000000009100000000000001547000000000000000009999123100000010000000000000BRRSIDACNOR8121
012026020308OIBR3       010OI          ON      N1   R$  000000000001800000000000180000000000018000000000001800000000000180000000000018000000000001900171000000000000557700000000000010038600000000000000009999123100000010000000000000BROIBRACNOR1112
012026020308OIBR4       010OI          PN      N1   R$  000000000011800000000001180000000000118000000000011800000000001180000000000117000000000012200007000000000000001000000000000000118000000000000000009999123100000010000000000000BROIBRACNPR8111
012026020308OSXB3       010OSX BRASIL  ON      NM   R$  000000000017100000000001710000000000171000000000017100000000001710000000000171000000000019700009000000000000001700000000000000290700000000000000009999123100000010000000000000BROSXBACNOR8109
012026020308PMAM3       010PARANAPANEMAON      NM   R$  000000000006700000000000760000000000067000000000007300000000000740000000000074000000000007501271000000000004076600000000000298305200000000000000009999123100000010000000000000BRPMAMACNOR3045
012026020308JFEN3       010JOAO FORTES ON           R$  000000000010100000000001140000000000098000000000010400000000000990000000000098000000000009900315000000000000124500000000000012981500000000000000009999123100000010000000000000BRJFENACNOR0061
012026020308CTAX3       010CONTAX      ON           R$  000000000009500000000000960000000000090000000000009100000000000910000000000091000000000009400016000000000000007900000000000000719200000000000000009999123100000010000000000000BRCTAXACNOR3119
012026020308LIGT3       010LIGHT S/A   ON      NM   R$  000000000051400000000005260000000000510000000000052100000000005240000000000521000000000052402119000000000001273700000000000664221500000000000000009999123100000010000000000000BRLIGTACNOR2125
012026020308CTSA3       010SANTANENSE  ON           R$  000000000027700000000002770000000000277000000000027700000000002770000000000222000000000027800001000000000000000100000000000000027700000000000000009999123100000010000000000000BRCTSAACNOR3063
012026020308HOOT4       010HOTEIS OTHONPN           R$  000000000070000000000007990000000000700000000000074700000000007560000000000723000000000075700010000000000000004500000000000003363700000000000000009999123100000010000000000000BRHOOTACNPR9015
012026020308AMBP3       010AMBIPAR     ON      NM   R$  000000000002800000000000290000000000028000000000002800000000000290000000000028000000000002901938000000000002578600000000000073573600000000000000009999123100000010000000000000BRAMBPACNOR6105
012026020308AMER3       010AMERICANAS  ON      NM   R$  000000000057600000000005830000000000562000000000057200000000005740000000000572000000000057403295000000000002259000000000001292695600000000000000009999123100000010000000000000BRAMERACNOR6103
012026020308AGXY3       010AGROGALAXY  ON      NM   R$  000000000027900000000002900000000000272000000000028100000000002870000000000284000000000028600182000000000000032400000000000009132500000000000000009999123100000010000000000000BRAGXYACNOR4104
012026020308BOBR4       010BOMBRIL     PN           R$  000000000012000000000001200000000000120000000000012000000000001200000000000120000000000012100014000000000000004900000000000000588000000000000000009999123100000010000000000000BRBOBRACNPR3128
012026020310SMFT9       010SMART FIT   ON  REC NM   R$  000000000225900000000023190000000002238000000000226800000000022470000000002100000000000229900011000000000000001500000000000003402400000000000000009999123100000010000000000000BRSMFTR04OR0117
012026020310IFCM1       010INFRACOMM   DIR ORD NM   R$  000000000000100000000000010000000000001000000000000100000000000010000000000000000000000000100147000000000000197300000000000000197300000000000000009999123100000010000000000000BRIFCMD06OR2108
012026020310PGMN9       010PAGUE MENOS ON  REC NM   R$  000000000062200000000006220000000000622000000000062200000000006220000000000584000000000068400001000000000000000100000000000000062200000000000000009999123100000010000000000000BRPGMNR06OR2105
012026020310BGIP2       010BANESE      DIR PRE      R$  000000000032100000000003210000000000301000000000031100000000003150000000000301000000000045000005000000000000000500000000000000155900000000000000009999123100000010000000000000BRBGIPD10PR4214
012026020310BMEB9       010MERCANTIL   ON  REC N1   R$  000000000629900000000062990000000005671000000000615600000000062980000000006050000000000625000043000000000000009100000000000056020500000000000000009999123100000010000000000000BRBMEBR04OR7209
012026020310BMGB2       010BANCO BMG   DIR PRE N1   R$  000000000007100000000000750000000000058000000000006500000000000700000000000069000000000007001127000000000000537800000000000035002900000000000000009999123100000010000000000000BRBMGBD02PR3117
012026020310AALR1       010ALLIAR      DIR ORD NM   R$  000000000000100000000000020000000000001000000000000100000000000010000000000000000000000000100030000000000000021600000000000000024000000000000000009999123100000010000000000000BRAALRD02OR9103
012026020312BCRI11      010FII BEES CRICI  ER       R$  000000000687700000000068770000000006741000000000677200000000067410000000006741000000000675000861000000000000010356000000000070140718000000000000009999123100000010000000000000BRBCRICTF009235
012026020312EURO11      010FII EUROPAR CI  ER       R$  000000003150100000000318020000000031501000000003179100000000318000000000031800000000003299900008000000000000000035000000000001112708000000000000009999123100000010000000000000BREUROCTF011379
012026020312EXES11      010FII EXES    CI           R$  000000000094500000000009450000000000934000000000093500000000009380000000000936000000000093800172000000000000037201000000000034798739000000000000009999123100000010000000000000BREXESCTF006146
012026020312CNES11      010FII CENESP  CI  ER       R$  000000000018200000000001830000000000179000000000018100000000001790000000000179000000000018101238000000000000034587000000000006271321000000000000009999123100000010000000000000BRCNESCTF001279
012026020312CYCR11      010FII CYRELA  CI  ER       R$  000000000090700000000009110000000000905000000000090700000000009080000000000907000000000090800736000000000000041244000000000037420822000000000000009999123100000010000000000000BRCYCRCTF004159
012026020312EMET11      010FII EMET    CI           R$  000000000098100000000009810000000000906000000000094800000000009780000000000922000000000097800036000000000000000442000000000000419038000000000000009999123100000010000000000000BREMETCTF007107
012026020312HSRE11      010FII HSIRENDACI  ER       R$  000000001069500000000106950000000010399000000001044000000000103990000000010351000000001039900024000000000000000080000000000000835259000000000000009999123100000010000000000000BRHSRECTF001161
012026020312HTMX11      010FII HOTEL MXCI  ER       R$  000000001380800000000138200000000013655000000001373200000000137600000000013753000000001376002272000000000000007391000000000101500064000000000000009999123100000010000000000000BRHTMXCTF000301
012026020312HUCG11      010FII UNIMED CCI  ER       R$  000000000989900000000099000000000009461000000000986000000000094610000000009500000000000000000011000000000000000033000000000000325382000000000000009999123100000010000000000000BRHUCGCTF004127
012026020312IBBP11      010FII IBBP    CI           R$  000000000084500000000008500000000000843000000000084900000000008500000000000849000000000085000043000000000000002017000000000001714293000000000000009999123100000010000000000000BRIBBPCTF005114
012026020312IBCR11      010FII BREI    CI           R$  000000000499300000000050410000000004969000000000500000000000050250000000004983000000000502500124000000000000041455000000000207277050000000000000009999123100000010000000000000BRIBCRCTF009156
012026020312MAGM11      010FII MAGM    CI           R$  000000000100000000000010000000000001000000000000100000000000010000000000000994000000000100000001000000000000000001000000000000001000000000000000009999123100000010000000000000BRMAGMCTF005104
012026020312MANA11      010FII MANATI  CI  ER       R$  000000000093400000000009340000000000923000000000092700000000009290000000000925000000000092904524000000000000189732000000000175945136000000000000009999123100000010000000000000BRMANACTF006145
012026020312MAXR11      010FII MAX RET CI           R$  000000000641300000000064140000000006314000000000636300000000064000000000006328000000000640000031000000000000000357000000000002271893000000000000009999123100000010000000000000BRMAXRCTF009287
012026020312NAVT11      010FII NAVI TOTCI           R$  000000000765000000000076800000000007650000000000767700000000076800000000007652000000000768000057000000000000000938000000000007201229000000000000009999123100000010000000000000BRNAVTCTF015158
012026020312NCRI11      010FII NAVI CRICI           R$  000000000092300000000009240000000000884000000000088600000000008840000000000885000000000092200027000000000000001045000000000000926729000000000000009999123100000010000000000000BRNCRICTF004137
012026020312NEWL11      010FII NEWPORT CI  ER       R$  000000001140100000000115200000000011401000000001148900000000115200000000011455000000001152000058000000000000000302000000000003469840000000000000009999123100000010000000000000BRNEWLCTF004175
012026020312NEWU11      010FII NEWRU   CI  ERS      R$  000000001070000000000107000000000010266000000001052800000000105500000000010266000000001058000039000000000000000655000000000006896115000000000000009999123100000010000000000000BRNEWUCTF005142
012026020312NSLU11      010FII LOURDES CI  ER       R$  000000002073000000000210000000000020711000000002083900000000209000000000020799000000002090000062000000000000000656000000000013670421000000000000009999123100000010000000000000BRNSLUCTF008331
012026020312SPTW11      010FII SPTW PAXCI  ER       R$  000000000414400000000041440000000004000000000000404200000000040030000000004002000000000404000169000000000000002834000000000011456386000000000000009999123100000010000000000000BRSPTWCTF002255
012026020312SPXS11      010FII SPX SYN CI           R$  000000000090000000000009000000000000894000000000089500000000008950000000000895000000000089800656000000000000044131000000000039536426000000000000009999123100000010000000000000BRSPXSCTF002143
012026020312GGRC11      010FII GGRCOVEPCI  ER       R$  000000000100000000000010000000000000995000000000099800000000009970000000000995000000000099718906000000000001030812000000001028825211000000000000009999123100000010000000000000BRGGRCCTF002217
012026020312GLOG11      010FII PLURAL LCI  ER       R$  000000000661200000000066990000000006451000000000655800000000066990000000006560000000000669900050000000000000001013000000000006644154000000000000009999123100000010000000000000BRGLOGCTF000133
012026020312GLPF11      010FII GLPF    CI           R$  000000001061600000000106160000000010616000000001061600000000106160000000000001000000000000000001000000000000000077000000000000817432000000000000009999123100000010000000000000BRGLPFCTF009111
012026020312XLPR11      010FII XLPR RI CI  ER       R$  000000000817000000000081700000000007865000000000805900000000079010000000008000000000000815100016000000000000000077000000000000620599000000000000009999123100000010000000000000BRXLPRCTF009102
012026020312XPCI11      010FII XP CRED CI  ER       R$  000000000869700000000086970000000008541000000000860800000000085450000000008545000000000861005342000000000000043234000000000372176011000000000000009999123100000010000000000000BRXPCICTF007177
012026020312XPCM11      010FII XP MACAECI           R$  000000000081900000000008240000000000805000000000081200000000008090000000000809000000000081800090000000000000000523000000000000425048000000000000009999123100000010000000000000BRXPCMCTF009230
012026020312JPPA11      010FII JPPA CRICI  ER       R$  000000000861600000000086210000000008531000000000860900000000085600000000008551000000000856000090000000000000000791000000000006809966000000000000009999123100000010000000000000BRJPPACTF005181
012026020312JSAF11      010FII JS A FINCI  ER       R$  000000000080100000000008100000000000801000000000080400000000008090000000000800000000000080902451000000000000244486000000000196741055000000000000009999123100000010000000000000BRJSAFCTF000154
012026020312JSCR11      010FII JSCR    CI  ER       R$  000000000087700000000008770000000000848000000000085600000000008590000000000859000000000086000839000000000000127560000000000109278986000000000000009999123100000010000000000000BRJSCRCTF001120
012026020312JSRE11      010FII JS REAL CI  ER       R$  000000000685900000000070400000000006820000000000692300000000069430000000006943000000000697007053000000000000080825000000000559609202000000000000009999123100000010000000000000BRJSRECTF007282
012026020312KCRE11      010FII KINEA CRCI  ER       R$  000000000088500000000008890000000000884000000000088400000000008850000000000884000000000088500630000000000000026707000000000023635136000000000000009999123100000010000000000000BRKCRECTF009145
012026020312KEVE11      010FII EVEN II CI           R$  000000006150000000000615000000000061300000000006145300000000613000000000061300000000006340000004000000000000000013000000000000798900000000000000009999123100000010000000000000BRKEVECTF007126
012026020312KFOF11      010FII KINEAFOFCI  ER       R$  000000000839200000000084370000000008353000000000838600000000084250000000008409000000000842502257000000000000028703000000000240718199000000000000009999123100000010000000000000BRKFOFCTF006189
012026020312KISU11      010FII KILIMA  CI  ER       R$  000000000070000000000007030000000000698000000000070000000000007000000000000699000000000070001291000000000000110255000000000077226063000000000000009999123100000010000000000000BRKISUCTF000164
012026020312KIVO11      010FII KIVO    CI  ER       R$  000000000672900000000068130000000006729000000000677100000000067580000000006758000000000678000275000000000000003290000000000022278363000000000000009999123100000010000000000000BRKIVOCTF007147
012026020312MIDW11      010FII MIDW    CI           R$  000000000103000000000010300000000001030000000000103000000000010300000000000000000000000103000001000000000000000001000000000000001030000000000000009999123100000010000000000000BRMIDWCTF004100
012026020312RINV11      010FII REAL INVCI           R$  000000001113800000000111790000000011093000000001115400000000111780000000011175000000001117800692000000000000002453000000000027363207000000000000009999123100000010000000000000BRRINVCTF004140
012026020312RMBS11      010FII RMBS    CI           R$  000000000081700000000008850000000000817000000000086700000000008510000000000851000000000087800054000000000000003391000000000002941141000000000000009999123100000010000000000000BRRMBSCTF007101
012026020312RNGO11      010FII RIONEGROCI  ER       R$  000000000515200000000053000000000005151000000000523200000000052380000000005191000000000527900041000000000000000299000000000001564573000000000000009999123100000010000000000000BRRNGOCTF003263
012026020312RPRI11      010FII RBR PR  CI  ER       R$  000000000885000000000089910000000008850000000000893300000000089000000000008891000000000890000646000000000000003693000000000032993043000000000000009999123100000010000000000000BRRPRICTF007148
012026020312RSPD11      010FII RBRESID3CI  EA       R$  000000008094900000000809490000000080949000000008094900000000809490000000076183000000008094900001000000000000000002000000000000161898000000000000009999123100000010000000000000BRRSPDCTF006124
012026020312RZAK11      010FII RIZA AKNCI           R$  000000000865000000000086800000000008603000000000863100000000086420000000008642000000000864303106000000000000021377000000000184507877000000000000009999123100000010000000000000BRRZAKCTF008163
012026020312RZAT11      010FII ARCTIUM CI           R$  000000000915000000000091500000000009099000000000912300000000091300000000009120000000000913000340000000000000004253000000000038804238000000000000009999123100000010000000000000BRRZATCTF009137
012026020312RZTR11      010FII RIZA TX CI  ER       R$  000000000969900000000097030000000009623000000000966100000000096920000000009640000000000969206169000000000000063034000000000609018948000000000000009999123100000010000000000000BRRZTRCTF003168
012026020312RZZR11      010FII RZZR    CI           R$  000000001379400000000139300000000013632000000001392000000000136410000000013641000000001392800019000000000000000160000000000002227278000000000000009999123100000010000000000000BRRZZRCTF000117
012026020312FVPQ11      010FII V PARQUECI  ER       R$  000000000701600000000070160000000006925000000000699900000000070000000000006956000000000700000018000000000000000133000000000000930940000000000000009999123100000010000000000000BRFVPQCTF015277
012026020312FYTO11      010FII FYTO    CI           R$  000000000087700000000008890000000000877000000000087900000000008890000000000889000000000089000135000000000000022115000000000019460055000000000000009999123100000010000000000000BRFYTOCTF008110
012026020312GAME11      010FII GUARD MUCI           R$  000000000090800000000009220000000000906000000000091400000000009220000000000915000000000092200240000000000000020162000000000018436353000000000000009999123100000010000000000000BRGAMECTF002151
012026020312ONDA11      010FII ONDA ME CI           R$  000000000093700000000009370000000000890000000000089100000000008990000000000888000000000089900229000000000000001052000000000000938017000000000000009999123100000010000000000000BRONDACTF006101
