00COTAHIST.2026BOVESPA 20260202                                                                                                                                                                                                                      
012026020202MRSA3B      010MRS LOGIST  ON      MB   R$  000000000428000000000042800000000004280000000000428000000000042800000000003600000000000428000001000000000000000100000000000000428000000000000000009999123100000010000000000000BRMRSAACNOR6126
012026020202MRVE3       010MRV         ON      NM   R$  000000000081000000000008380000000000808000000000082700000000008280000000000828000000000082911651000000000006297400000000005211957100000000000000009999123100000010000000000000BRMRVEACNOR2128
012026020202RNEW3       010RENOVA      ON      N2   R$  000000000010900000000001130000000000105000000000010900000000001090000000000106000000000010900115000000000000081100000000000008844600000000000000009999123100000010000000000000BRRNEWACNOR8113
012026020202RNEW4       010RENOVA      PN      N2   R$  000000000009600000000000960000000000094000000000009400000000000940000000000094000000000009600043000000000000039600000000000003748400000000000000009999123100000010000000000000BRRNEWACNPR5113
012026020202ROMI3       010ROMI        ON      NM   R$  000000000085200000000008520000000000825000000000083100000000008380000000000835000000000083800890000000000000223100000000000185599100000000000000009999123100000010000000000000BRROMIACNOR8201
012026020202RPAD3       010ALFA HOLDINGON           R$  000000000053200000000005320000000000532000000000053200000000005320000000000531000000000061800001000000000000000200000000000000106400000000000000009999123100000010000000000000BRRPADACNOR1199
012026020202RSUL4       010RIOSULENSE  PN           R$  000000000632500000000065480000000006324000000000641300000000064370000000006332000000000643800016000000000000001700000000000010902400000000000000009999123100000010000000000000BRRSULACNPR3116
012026020202SANB11      010SANTANDER BRUNT          R$  000000000363200000000036960000000003623000000000367500000000036820000000003680000000000368808741000000000002476100000000009101036100000000000000009999123100000010000000000000BRSANBCDAM13172
012026020202SANB3       010SANTANDER BRON           R$  000000000179500000000018240000000001790000000000180800000000018070000000001806000000000181800562000000000000078000000000000141072300000000000000009999123100000010000000000000BRSANBACNOR8179
012026020202SANB4       010SANTANDER BRPN           R$  000000000183600000000018690000000001835000000000185600000000018540000000001854000000000186500451000000000000065700000000000121977300000000000000009999123100000010000000000000BRSANBACNPR5179
012026020202JHSF3       010JHSF PART   ON  ED  NM   R$  000000000095500000000009840000000000953000000000097500000000009780000000000976000000000097909526000000000004411500000000004302498200000000000000009999123100000010000000000000BRJHSFACNOR2156
012026020202JOPA3       010JOSAPAR     ON           R$  000000000201200000000020120000000002012000000000201200000000020120000000002011000000000230000001000000000000000100000000000000201200000000000000009999123100000010000000000000BRJOPAACNOR5136
012026020202JSLG3       010JSL         ON      NM   R$  000000000073800000000007910000000000738000000000077300000000007850000000000778000000000078503086000000000001479100000000001144067000000000000000009999123100000010000000000000BRJSLGACNOR2123
012026020202MILS3       010MILLS       ON      NM   R$  000000000155000000000015760000000001548000000000155500000000015530000000001552000000000156002401000000000001061800000000001651869500000000000000009999123100000010000000000000BRMILSACNOR2132
012026020202MLAS3       010MULTILASER  ON      NM   R$  000000000014200000000001420000000000138000000000013900000000001390000000000139000000000014100742000000000000848100000000000118588500000000000000009999123100000010000000000000BRMLASACNOR9102
012026020202MNDL3       010MUNDIAL     ON           R$  000000000177000000000017990000000001760000000000178500000000017990000000001753000000000180000004000000000000000700000000000001249600000000000000009999123100000010000000000000BRMNDLACNOR4109
012026020202MNPR3       010MINUPAR     ON           R$  000000000044100000000004690000000000432000000000044900000000004320000000000430000000000043200058000000000000031100000000000013968300000000000000009999123100000010000000000000BRMNPRACNOR5123
012026020202MOTV3       010MOTIVA SA   ON      NM   R$  000000000169800000000017000000000001671000000000168800000000017000000000001695000000000170113510000000000007106500000000011997235500000000000000009999123100000010000000000000BRMOTVACNOR7102
012026020202MOVI3       010MOVIDA      ON      NM   R$  000000000124500000000012700000000001227000000000125300000000012640000000001259000000000126408008000000000002843400000000003565253200000000000000009999123100000010000000000000BRMOVIACNOR0126
012026020202SOJA3       010BOA SAFRA   ON      NM   R$  000000000087400000000008870000000000871000000000087900000000008810000000000881000000000088702301000000000000651900000000000573548800000000000000009999123100000010000000000000BRSOJAACNOR9109
012026020202SOND5       010SONDOTECNICAPNA          R$  000000000645500000000064550000000006455000000000645500000000064550000000005901000000000700000001000000000000000100000000000000645500000000000000009999123100000010000000000000BRSONDACNPA8168
012026020202SUZB3       010SUZANO S.A. ON      NM   R$  000000000494200000000049620000000004855000000000489800000000048720000000004872000000000489022425000000000005900300000000028899852700000000000000009999123100000010000000000000BRSUZBACNOR0135
012026020202CMIG3       010CEMIG       ON      N1   R$  000000000150000000000015350000000001497000000000151900000000015300000000001518000000000153301638000000000000359300000000000545987400000000000000009999123100000010000000000000BRCMIGACNOR6251
012026020202CMIG4       010CEMIG       PN      N1   R$  000000000115400000000011620000000001146000000000115700000000011600000000001159000000000116118271000000000015577100000000018033418500000000000000009999123100000010000000000000BRCMIGACNPR3252
012026020202CTKA4       010KARSTEN     PN           R$  000000000429900000000043850000000004299000000000434200000000043850000000004210000000000447900008000000000000001900000000000008250800000000000000009999123100000010000000000000BRCTKAACNPR7043
012026020202CURY3       010CURY S/A    ON      NM   R$  000000000347500000000036940000000003470000000000362600000000036430000000003627000000000364325356000000000005930500000000021508239300000000000000009999123100000010000000000000BRCURYACNOR3115
012026020202CVCB3       010CVC BRASIL  ON      NM   R$  000000000025900000000002590000000000244000000000025000000000002490000000000248000000000024912089000000000033569900000000008419856600000000000000009999123100000010000000000000BRCVCBACNOR1118
012026020202BEES3       010BANESTES    ON           R$  000000000082100000000008300000000000815000000000082200000000008220000000000821000000000082200102000000000000020400000000000016780000000000000000009999123100000010000000000000BRBEESACNOR9414
012026020202BEES4       010BANESTES    PN           R$  000000000084600000000008590000000000825000000000083800000000008350000000000830000000000084400050000000000000008200000000000006877500000000000000009999123100000010000000000000BRBEESACNPR6339
012026020202PRIO3       010PETRORIO    ON      NM   R$  000000000496800000000051080000000004936000000000504200000000050880000000005085000000000509344667000000000014347500000000072340430200000000000000009999123100000010000000000000BRPRIOACNOR1111
012026020202ALPA3       010ALPARGATAS  ON      N1   R$  000000000108500000000011350000000001085000000000113000000000011350000000001135000000000114900059000000000000092100000000000104160700000000000000009999123100000010000000000000BRALPAACNOR0234
012026020202ALPA4       010ALPARGATAS  PN      N1   R$  000000000143000000000014700000000001406000000000145200000000014640000000001462000000000147004763000000000001953700000000002836775700000000000000009999123100000010000000000000BRALPAACNPR7235
012026020202BALM3       010BAUMER      ON           R$  000000000243500000000026000000000002435000000000251700000000026000000000001830000000000399900002000000000000000200000000000000503500000000000000009999123100000010000000000000BRBALMACNOR5059
012026020202BALM4       010BAUMER      PN           R$  000000000205600000000020560000000002049000000000205300000000020490000000001800000000000204900003000000000000000600000000000001232200000000000000009999123100000010000000000000BRBALMACNPR2060
012026020202BAZA3       010AMAZONIA    ON           R$  000000000861100000000086360000000008516000000000857300000000085170000000008516000000000861800042000000000000004300000000000036867700000000000000009999123100000010000000000000BRBAZAACNOR0180
012026020202BBAS3       010BRASIL      ON      NM   R$  000000000251500000000025450000000002514000000000253000000000025300000000002529000000000253136749000000000018511500000000046845360800000000000000009999123100000010000000000000BRBBASACNOR3334
012026020202BBSE3       010BBSEGURIDADEON      NM   R$  000000000374800000000038100000000003744000000000377300000000038100000000003801000000000381012855000000000009950200000000037551099700000000000000009999123100000010000000000000BRBBSEACNOR5127
012026020202BRAV3       010BRAVA       ON      NM   R$  000000000181900000000018580000000001799000000000182400000000018410000000001839000000000184114607000000000007603400000000013872528700000000000000009999123100000010000000000000BRBRAVACNOR3103
012026020202COCE5       010COELCE      PNA          R$  000000000317400000000032190000000003168000000000318200000000031680000000003168000000000319000047000000000000010900000000000034693300000000000000009999123100000010000000000000BRCOCEACNPA3150
012026020202COGN3       010COGNA ON    ON      NM   R$  000000000045500000000004590000000000448000000000045200000000004500000000000449000000000045115431000000000023871300000000010796103100000000000000009999123100000010000000000000BRCOGNACNOR2110
012026020202CYRE4       010CYRELA REALTPN      NM   R$  000000000287700000000029250000000002837000000000288700000000029250000000002900000000000292603328000000000000480100000000001386394100000000000000009999123100000010000000000000BRCYREACNPR4114
012026020202ALLD3       010ALLIED      ON  EJ  NM   R$  000000000078300000000008020000000000776000000000079000000000007990000000000798000000000080001721000000000000760800000000000601378300000000000000009999123100000010000000000000BRALLDACNOR3110
012026020202ALOS3       010ALLOS       ON  ED  NM   R$  000000000309000000000031440000000003080000000000312000000000031270000000003124000000000312817827000000000005405300000000016865026500000000000000009999123100000010000000000000BRALOSACNOR5118
012026020202CMIN3       010CSNMINERACAOON      N2   R$  000000000059100000000006000000000000588000000000059400000000005990000000000598000000000059910349000000000007267600000000004323709600000000000000009999123100000010000000000000BRCMINACNOR2116
012026020202B3SA3       010B3          ON      NM   R$  000000000162600000000016610000000001624000000000164100000000016350000000001634000000000163645179000000000035903500000000058917997800000000000000009999123100000010000000000000BRB3SAACNOR6140
012026020202AERI3       010AERIS       ON      NM   R$  000000000030800000000003190000000000306000000000031100000000003180000000000313000000000031800204000000000000084400000000000026290400000000000000009999123100000010000000000000BRAERIACNOR4102
012026020202AGRO3       010BRASILAGRO  ON      NM   R$  000000000213300000000021400000000002090000000000211800000000021240000000002122000000000212901266000000000000224100000000000474835400000000000000009999123100000010000000000000BRAGROACNOR7116
012026020202DASA3       010DASA        ON      NM   R$  000000000043100000000004500000000000419000000000043700000000004410000000000440000000000044103228000000000001709900000000000747612200000000000000009999123100000010000000000000BRDASAACNOR1123
012026020202ALPK3       010ESTAPAR     ON      NM   R$  000000000046300000000004700000000000462000000000046500000000004680000000000464000000000046800351000000000000113700000000000052931700000000000000009999123100000010000000000000BRALPKACNOR9101
012026020202ALUP11      010ALUPAR      UNT     N2   R$  000000000339300000000034240000000003342000000000336300000000033420000000003342000000000334403531000000000000828300000000002785981200000000000000009999123100000010000000000000BRALUPCDAM15126
012026020202ALUP3       010ALUPAR      ON      N2   R$  000000000125500000000012800000000001220000000000123600000000012350000000001230000000000124100107000000000000015600000000000019293600000000000000009999123100000010000000000000BRALUPACNOR8126
012026020202ALUP4       010ALUPAR      PN      N2   R$  000000000106900000000010820000000001058000000000107100000000010690000000001069000000000107900237000000000000033500000000000035885900000000000000009999123100000010000000000000BRALUPACNPR5126
012026020202AMAR3       010LOJAS MARISAON      NM   R$  000000000009700000000000990000000000096000000000009700000000000980000000000097000000000009800342000000000000325400000000000031672300000000000000009999123100000010000000000000BRAMARACNOR4115
012026020202AMOB3       010AUTOMOB     ON      NM   R$  000000000133000000000013450000000001301000000000132700000000013400000000001340000000000134600163000000000000025500000000000033847300000000000000009999123100000010000000000000BRAMOBACNOR9101
012026020202ANIM3       010ANIMA       ON      NM   R$  000000000051900000000005220000000000502000000000051100000000005130000000000511000000000051308329000000000008490800000000004339570200000000000000009999123100000010000000000000BRANIMACNOR6110
012026020202ARML3       010ARMAC       ON      NM   R$  000000000048100000000004890000000000464000000000047300000000004710000000000471000000000047201780000000000000711000000000000336706600000000000000009999123100000010000000000000BRARMLACNOR1117
012026020202ARND3       010ARANDU      ON      NM   R$  000000000008000000000000800000000000080000000000008000000000000800000000000079000000000008000002000000000000000200000000000000016000000000000000009999123100000010000000000000BRARNDACNOR6100
012026020202ASAI3       010ASSAI       ON      NM   R$  000000000086100000000008760000000000847000000000086400000000008670000000000866000000000086715563000000000024110300000000020850617400000000000000009999123100000010000000000000BRASAIACNOR0109
012026020202BGIP4       010BANESE      PN  EJS      R$  000000000356700000000035860000000003476000000000355400000000035600000000003511000000000358500007000000000000000700000000000002488300000000000000009999123100000010000000000000BRBGIPACNPR8215
012026020202AZEV3       010AZEVEDO     ON           R$  000000000002900000000000310000000000028000000000002900000000000290000000000029000000000003000168000000000000667700000000000019588500000000000000009999123100000010000000000000BRAZEVACNOR0123
012026020202AZEV4       010AZEVEDO     PN           R$  000000000002100000000000220000000000020000000000002000000000000210000000000020000000000002100550000000000004720600000000000098916300000000000000009999123100000010000000000000BRAZEVACNPR7123
012026020202AZTE3       010AZT ENERGIA ON           R$  000000000003700000000000370000000000035000000000003500000000000360000000000036000000000003700297000000000000510500000000000018305500000000000000009999123100000010000000000000BRAZTEACNOR4101
012026020202AZZA3       010AZZAS 2154  ON      NM   R$  000000000268400000000026990000000002586000000000261100000000026190000000002615000000000261911984000000000002850100000000007442815500000000000000009999123100000010000000000000BRAZZAACNOR9104
012026020202BBDC3       010BRADESCO    ON      N1   R$  000000000184200000000018580000000001835000000000184900000000018520000000001850000000000185209829000000000005524200000000010216974700000000000000009999123100000010000000000000BRBBDCACNOR1796
012026020202BBDC4       010BRADESCO    PN      N1   R$  000000000213800000000021600000000002131000000000214800000000021580000000002152000000000215835026000000000025109800000000053957997700000000000000009999123100000010000000000000BRBBDCACNPR8796
012026020202BRBI11      010BR PARTNERS UNT     N2   R$  000000000198400000000020670000000001966000000000203500000000020570000000002057000000000206303151000000000000445400000000000906398300000000000000009999123100000010000000000000BRBRBICDAM10116
012026020202BRKM3       010BRASKEM     ON      N1   R$  000000000089900000000009020000000000870000000000088400000000008820000000000877000000000089100144000000000000025900000000000022915600000000000000009999123100000010000000000000BRBRKMACNOR1119
012026020202BRKM5       010BRASKEM     PNA ATZ N1   R$  000000000092000000000009270000000000883000000000090000000000009050000000000905000000000090606399000000000003617900000000003257032300000000000000009999123100000010000000000000BRBRKMACNPA4123
012026020202CSED3       010CRUZEIRO EDUON      NM   R$  000000000071800000000007230000000000700000000000070800000000007030000000000702000000000070901237000000000000358000000000000253508900000000000000009999123100000010000000000000BRCSEDACNOR9107
012026020202CSMG3       010COPASA      ON      NM   R$  000000000524000000000053750000000005099000000000520800000000052380000000005238000000000525619203000000000003983600000000020749879900000000000000009999123100000010000000000000BRCSMGACNOR5183
012026020202EKTR3       010ELEKTRO     ON           R$  000000000489000000000048900000000004890000000000489000000000048900000000004890000000000650000001000000000000000100000000000000489000000000000000009999123100000010000000000000BREKTRACNOR0174
012026020202CASH3       010MELIUZ      ON      NM   R$  000000000038700000000003870000000000375000000000037900000000003760000000000376000000000037702716000000000002623600000000000995367500000000000000009999123100000010000000000000BRCASHACNOR8107
012026020202CBAV3       010CBA         ON      NM   R$  000000000101700000000010280000000001011000000000102100000000010280000000001022000000000102815566000000000011421900000000011665182200000000000000009999123100000010000000000000BRCBAVACNOR5104
012026020202CEAB3       010CEA MODAS   ON      NM   R$  000000000120000000000012500000000001194000000000122600000000012450000000001245000000000124819253000000000013042700000000015994422900000000000000009999123100000010000000000000BRCEABACNOR1105
012026020202CSUD3       010CSU DIGITAL ON      NM   R$  000000000192600000000019270000000001875000000000189900000000018870000000001877000000000188700474000000000000065000000000000123438400000000000000009999123100000010000000000000BRCSUDACNOR5117
012026020202EKTR4       010ELEKTRO     PN           R$  000000000383000000000039000000000003736000000000385200000000038800000000003880000000000390500009000000000000001200000000000004622700000000000000009999123100000010000000000000BREKTRACNPR7174
012026020202EMAE4       010EMAE        PN           R$  000000000470400000000048900000000004701000000000477200000000047800000000004702000000000478000024000000000000004500000000000021477300000000000000009999123100000010000000000000BREMAEACNPR1128
012026020202EMBJ3       010EMBRAER     ON      NM   R$  000000000980500000000098670000000009600000000000970400000000097240000000009719000000000972420240000000000004980100000000048329180100000000000000009999123100000010000000000000BREMBJACNOR1102
012026020202GGPS3       010GPS         ON      NM   R$  000000000187000000000019030000000001845000000000188500000000018950000000001895000000000190607555000000000001589600000000002997920500000000000000009999123100000010000000000000BRGGPSACNOR9106
012026020202GMAT3       010GRUPO MATEUSON      NM   R$  000000000048500000000004940000000000480000000000048800000000004920000000000490000000000049206305000000000010056000000000004911866300000000000000009999123100000010000000000000BRGMATACNOR7109
012026020202ENEV3       010ENEVA       ON      NM   R$  000000000212300000000021230000000002017000000000206700000000021000000000002100000000000210448959000000000025738500000000053224810900000000000000009999123100000010000000000000BRENEVACNOR8107
012026020202BIOM3       010BIOMM       ON      MA   R$  000000000061500000000006810000000000595000000000064700000000006740000000000674000000000067500670000000000000250300000000000162024100000000000000009999123100000010000000000000BRBIOMACNOR2113
012026020202CAMB3       010CAMBUCI     ON           R$  000000000096900000000009700000000000934000000000095200000000009590000000000958000000000096000210000000000000045100000000000042954600000000000000009999123100000010000000000000BRCAMBACNOR4136
012026020202CAML3       010CAMIL       ON      NM   R$  000000000066600000000006790000000000662000000000067300000000006790000000000671000000000067902496000000000001238200000000000834015100000000000000009999123100000010000000000000BRCAMLACNOR3134
012026020202BLAU3       010BLAU        ON      NM   R$  000000000101000000000010200000000000995000000000100800000000010200000000001011000000000102001549000000000000340200000000000343030400000000000000009999123100000010000000000000BRBLAUACNOR8120
012026020202GOAU3       010GERDAU MET  ON      N1   R$  000000000095100000000009800000000000950000000000096500000000009670000000000967000000000097300382000000000000123200000000000119001000000000000000009999123100000010000000000000BRGOAUACNOR1274
012026020202GOAU4       010GERDAU MET  PN      N1   R$  000000000098700000000010060000000000985000000000099800000000010000000000001000000000000100412374000000000010473800000000010460381000000000000000009999123100000010000000000000BRGOAUACNPR8275
012026020202IFCM3       010INFRACOMM   ON      NM   R$  000000000007300000000000740000000000066000000000006900000000000670000000000067000000000006800999000000000000752600000000000052203800000000000000009999123100000010000000000000BRIFCMACNOR8109
012026020202IGTI11      010IGUATEMI S.AUNT     N1   R$  000000000285000000000028800000000002834000000000286300000000028590000000002857000000000286810931000000000003431800000000009825845400000000000000009999123100000010000000000000BRIGTICDAM16108
012026020202IGTI3       010IGUATEMI S.AON      N1   R$  000000000033200000000003350000000000326000000000032900000000003350000000000330000000000033500059000000000000025000000000000008225600000000000000009999123100000010000000000000BRIGTIACNOR8108
012026020202ATED3       010ATOM EDUC   ON           R$  000000000020900000000002090000000000203000000000020400000000002040000000000204000000000020500026000000000000020600000000000004207100000000000000009999123100000010000000000000BRATEDACNOR1100
012026020202AUAU3       010PETZCOBASI  ON      NM   R$  000000000035200000000003550000000000327000000000033600000000003390000000000338000000000033905623000000000007575200000000002550640000000000000000009999123100000010000000000000BRAUAUACNOR1100
012026020202AURE3       010AUREN       ON      NM   R$  000000000112500000000011280000000001103000000000111300000000011160000000001115000000000111808903000000000005147400000000005733759700000000000000009999123100000010000000000000BRAUREACNOR9105
012026020202DESK3       010DESKTOP     ON      NM   R$  000000000148000000000014800000000001378000000000140900000000014080000000001407000000000140806862000000000001836900000000002590000400000000000000009999123100000010000000000000BRDESKACNOR2106
012026020202DEXP3       010DEXXOS PAR  ON      N1   R$  000000000074200000000007480000000000732000000000073700000000007360000000000736000000000073800616000000000000151200000000000111511700000000000000009999123100000010000000000000BRDEXPACNOR1109
012026020202DEXP4       010DEXXOS PAR  PN      N1   R$  000000000074800000000007480000000000735000000000074200000000007480000000000736000000000074400009000000000000003400000000000002523000000000000000009999123100000010000000000000BRDEXPACNPR8109
012026020202DIRR3       010DIRECIONAL  ON      NM   R$  000000000139500000000014880000000001395000000000146600000000014870000000001485000000000148722890000000000010923000000000016014222500000000000000009999123100000010000000000000BRDIRRACNOR0123
012026020202POSI3       010POSITIVO TECON      NM   R$  000000000045400000000004590000000000449000000000045300000000004570000000000452000000000045701678000000000000904300000000000410133100000000000000009999123100000010000000000000BRPOSIACNOR9118
012026020202CEEB3       010COELBA      ON           R$  000000000444000000000045750000000004327000000000443000000000045750000000004575000000000474500009000000000000000900000000000003987700000000000000009999123100000010000000000000BRCEEBACNOR3207
012026020202CGAS3       010COMGAS      ON           R$  000000001300000000000130000000000013000000000001300000000000130000000000012500000000001349900001000000000000000100000000000001300000000000000000009999123100000010000000000000BRCGASACNOR0168
012026020202CGAS5       010COMGAS      PNA          R$  000000001320000000000132990000000013175000000001320100000000131900000000013092000000001319000008000000000000001100000000000014521900000000000000009999123100000010000000000000BRCGASACNPA3165
012026020202CGRA3       010GRAZZIOTIN  ON           R$  000000000274000000000028500000000002701000000000277800000000027900000000002706000000000280000016000000000000002100000000000005834200000000000000009999123100000010000000000000BRCGRAACNOR2088
012026020202CGRA4       010GRAZZIOTIN  PN           R$  000000000262300000000027500000000002623000000000269900000000027260000000002700000000000272600062000000000000011800000000000031859800000000000000009999123100000010000000000000BRCGRAACNPR9088
012026020202CLSC4       010CELESC      PN      N2   R$  000000001405100000000142000000000013800000000001392200000000139000000000013839000000001390000038000000000000011000000000000153149100000000000000009999123100000010000000000000BRCLSCACNPR3138
012026020202BEEF3       010MINERVA     ON      NM   R$  000000000062100000000006250000000000613000000000061900000000006210000000000619000000000062109939000000000010474600000000006487119800000000000000009999123100000010000000000000BRBEEFACNOR6120
012026020202BRSR3       010BANRISUL    ON      N1   R$  000000000189000000000019440000000001886000000000191300000000019250000000001915000000000192500062000000000000008000000000000015309100000000000000009999123100000010000000000000BRBRSRACNOR3197
012026020202BRSR6       010BANRISUL    PNB     N1   R$  000000000180300000000018600000000001787000000000183000000000018600000000001842000000000186010672000000000002412400000000004415196000000000000000009999123100000010000000000000BRBRSRACNPB4200
012026020202BRST3       010BRISANET    ON      NM   R$  000000000033700000000003370000000000331000000000033400000000003340000000000333000000000033400923000000000000393600000000000131596200000000000000009999123100000010000000000000BRBRSTACNOR9102
012026020202BPAC11      010BTGP BANCO  UNT     N2   R$  000000000608300000000061490000000006022000000000609500000000061120000000006111000000000612825831000000000011794800000000071900042200000000000000009999123100000010000000000000BRBPACUNT006128
012026020202BPAC3       010BTGP BANCO  ON      N2   R$  000000000428900000000043760000000004261000000000431900000000043750000000004246000000000441500050000000000000007000000000000030238900000000000000009999123100000010000000000000BRBPACACNOR7139
012026020202BPAC5       010BTGP BANCO  PNA     N2   R$  000000000114000000000011620000000001111000000000114100000000011480000000001144000000000115700058000000000000011800000000000013469300000000000000009999123100000010000000000000BRBPACACNPA0139
012026020202BRAP3       010BRADESPAR   ON      N1   R$  000000000207900000000020970000000002060000000000207800000000020690000000002069000000000208200421000000000000120700000000000250911600000000000000009999123100000010000000000000BRBRAPACNOR5153
012026020202BRAP4       010BRADESPAR   PN      N1   R$  000000000238000000000024200000000002367000000000239800000000024020000000002396000000000240208790000000000002590700000000006214807000000000000000009999123100000010000000000000BRBRAPACNPR2153
012026020202CEBR3       010CEB         ON           R$  000000000319500000000031960000000003094000000000313800000000031500000000003000000000000317000023000000000000002800000000000008789000000000000000009999123100000010000000000000BRCEBRACNOR5129
012026020202CEBR5       010CEB         PNA          R$  000000000278900000000027900000000002763000000000278800000000027840000000002751000000000278500009000000000000003100000000000008644700000000000000009999123100000010000000000000BRCEBRACNPA8128
012026020202CEBR6       010CEB         PNB          R$  000000000296800000000030270000000002968000000000299300000000029860000000002983000000000301500011000000000000001500000000000004489600000000000000009999123100000010000000000000BRCEBRACNPB6128
012026020202CEDO4       010CEDRO       PN      N1   R$  000000000093500000000009350000000000931000000000093300000000009310000000000930000000000094100002000000000000000200000000000000186600000000000000009999123100000010000000000000BRCEDOACNPR5128
012026020202BSLI3       010BRB BANCO   ON           R$  000000000053700000000005600000000000521000000000052700000000005210000000000521000000000052500096000000000000026000000000000013721800000000000000009999123100000010000000000000BRBSLIACNOR5198
012026020202BSLI4       010BRB BANCO   PN           R$  000000000058000000000006050000000000560000000000057300000000005690000000000560000000000057000076000000000000017300000000000009921100000000000000009999123100000010000000000000BRBSLIACNPR2198
012026020202CSNA3       010SID NACIONALON           R$  000000000100400000000010200000000000997000000000100600000000010010000000001001000000000100316597000000000009347700000000009412278400000000000000009999123100000010000000000000BRCSNAACNOR6263
012026020202RCSL3       010RECRUSUL    ON           R$  000000000030400000000003040000000000286000000000029300000000002940000000000294000000000029600357000000000000197600000000000057929300000000000000009999123100000010000000000000BRRCSLACNOR4134
012026020202RCSL4       010RECRUSUL    PN           R$  000000000071100000000007880000000000665000000000074100000000007430000000000742000000000074307596000000000004547500000000003371047200000000000000009999123100000010000000000000BRRCSLACNPR1134
012026020202RDOR3       010REDE D OR   ON      NM   R$  000000000426400000000043890000000004186000000000431600000000043880000000004376000000000438920755000000000005530400000000023874700000000000000000009999123100000010000000000000BRRDORACNOR8119
012026020202EZTC3       010EZTEC       ON      NM   R$  000000000151200000000015390000000001512000000000152700000000015260000000001526000000000153404535000000000001230600000000001879707000000000000000009999123100000010000000000000BREZTCACNOR0132
012026020202FESA3       010FERBASA     ON      N1   R$  000000000124800000000012480000000001229000000000123200000000012300000000001229000000000123000008000000000000001100000000000001356200000000000000009999123100000010000000000000BRFESAACNOR8194
012026020202VITT3       010VITTIA      ON      NM   R$  000000000045600000000004630000000000446000000000045400000000004470000000000446000000000044700790000000000000137700000000000062614800000000000000009999123100000010000000000000BRVITTACNOR4113
012026020202FESA4       010FERBASA     PN      N1   R$  000000000083700000000008590000000000823000000000083600000000008250000000000825000000000082702754000000000001335500000000001117103100000000000000009999123100000010000000000000BRFESAACNPR5090
012026020202FHER3       010FER HERINGERON      NM   R$  000000000047500000000004750000000000444000000000046100000000004700000000000459000000000046900051000000000000008900000000000004111400000000000000009999123100000010000000000000BRFHERACNOR5103
012026020202FICT3       010FICTORALIMENON           R$  000000000009000000000000920000000000067000000000007600000000000700000000000070000000000007100688000000000000764200000000000058772000000000000000009999123100000010000000000000BRFICTACNOR3101
012026020202FIQE3       010UNIFIQUE    ON      NM   R$  000000000052500000000005280000000000499000000000051000000000005140000000000514000000000051502496000000000001628000000000000830410200000000000000009999123100000010000000000000BRFIQEACNOR5112
012026020202FLRY3       010FLEURY      ON      NM   R$  000000000163300000000016990000000001633000000000167900000000016870000000001686000000000168810811000000000004105900000000006895134800000000000000009999123100000010000000000000BRFLRYACNOR5143
012026020202VIVA3       010VIVARA S.A. ON      NM   R$  000000000279000000000028700000000002775000000000283700000000028570000000002856000000000285717099000000000005460300000000015494159000000000000000009999123100000010000000000000BRVIVAACNOR0109
012026020202HBOR3       010HELBOR      ON      NM   R$  000000000027500000000002770000000000267000000000027000000000002730000000000271000000000027301871000000000000763300000000000206691400000000000000009999123100000010000000000000BRHBORACNOR3120
012026020202HBRE3       010HBR REALTY  ON      NM   R$  000000000034900000000003550000000000345000000000035000000000003510000000000351000000000035300710000000000000613100000000000214864000000000000000009999123100000010000000000000BRHBREACNOR4101
012026020202HBSA3       010HIDROVIAS   ON      NM   R$  000000000040600000000004170000000000402000000000040600000000004030000000000403000000000040402235000000000001729700000000000702543200000000000000009999123100000010000000000000BRHBSAACNOR0102
012026020202HYPE3       010HYPERA      ON      NM   R$  000000000253900000000025530000000002507000000000253400000000025410000000002541000000000254805708000000000001301000000000003296773100000000000000009999123100000010000000000000BRHYPEACNOR0149
012026020202MDIA3       010M.DIASBRANCOON  ED  NM   R$  000000000249000000000025100000000002487000000000250100000000025100000000002504000000000251501905000000000000355200000000000888640400000000000000009999123100000010000000000000BRMDIAACNOR7150
012026020202MDNE3       010MOURA DUBEUXON      NM   R$  000000000287900000000029820000000002861000000000292400000000029100000000002910000000000291409693000000000002476900000000007244165400000000000000009999123100000010000000000000BRMDNEACNOR9104
012026020202MEAL3       010IMC S/A     ON      NM   R$  000000000011600000000001160000000000113000000000011400000000001140000000000113000000000011400181000000000000216800000000000024816000000000000000009999123100000010000000000000BRMEALACNOR9105
012026020202MELK3       010MELNICK     ON      NM   R$  000000000039900000000004000000000000394000000000039600000000003940000000000394000000000039700734000000000000323000000000000128084600000000000000009999123100000010000000000000BRMELKACNOR8116
012026020202MGEL4       010MANGELS INDLPN           R$  000000000069900000000006990000000000699000000000069900000000006990000000000653000000000068600002000000000000000200000000000000139800000000000000009999123100000010000000000000BRMGELACNPR3147
012026020202MGLU3       010MAGAZ LUIZA ON      NM   R$  000000000097800000000009880000000000963000000000097600000000009830000000000981000000000098320692000000000014726400000000014377791500000000000000009999123100000010000000000000BRMGLUACNOR2130
012026020202PATI3       010PANATLANTICAON           R$  000000000330200000000033020000000003302000000000330200000000033020000000003301000000000379000001000000000000000100000000000000330200000000000000009999123100000010000000000000BRPATIACNOR6069
012026020202PCAR3       010P.ACUCAR-CBDON      NM   R$  000000000038100000000003920000000000380000000000038500000000003830000000000383000000000038605426000000000007686400000000002959506700000000000000009999123100000010000000000000BRPCARACNOR3170
012026020202PDGR3       010PDG REALT   ON      NM   R$  000000000027800000000003050000000000278000000000029200000000002870000000000284000000000028700245000000000000163200000000000047699400000000000000009999123100000010000000000000BRPDGRACNOR8123
012026020202PDTC3       010PADTEC      ON      NM   R$  000000000017400000000001800000000000167000000000017200000000001700000000000167000000000017000171000000000000067300000000000011589200000000000000009999123100000010000000000000BRPDTCACNOR3101
012026020202TECN3       010TECHNOS     ON      NM   R$  000000000077800000000008040000000000778000000000079100000000008040000000000795000000000080400226000000000000040100000000000031753200000000000000009999123100000010000000000000BRTECNACNOR6111
012026020202TELB3       010TELEBRAS    ON           R$  000000000114500000000011650000000001145000000000115200000000011650000000001105000000000116300004000000000000000500000000000000576000000000000000009999123100000010000000000000BRTELBACNOR2142
012026020202TELB4       010TELEBRAS    PN           R$  000000000077500000000007750000000000775000000000077500000000007750000000000775000000000078700004000000000000000400000000000000310000000000000000009999123100000010000000000000BRTELBACNPR9142
012026020202TEND3       010TENDA       ON      NM   R$  000000000276000000000028410000000002760000000000281100000000028080000000002795000000000280809361000000000001676300000000004712115500000000000000009999123100000010000000000000BRTENDACNOR4114
012026020202ISAE3       010ISA ENERGIA ON  EJ  N1   R$  000000000337200000000034970000000003372000000000342600000000034330000000003381000000000343300032000000000000004600000000000015760800000000000000009999123100000010000000000000BRISAEACNOR2108
012026020202ISAE4       010ISA ENERGIA PN  EJ  N1   R$  000000000279900000000028640000000002786000000000284800000000028600000000002859000000000286209704000000000003611600000000010287787700000000000000009999123100000010000000000000BRISAEACNPR9108
012026020202LAND3       010TERRASANTAPAON      NM   R$  000000000083200000000008370000000000820000000000082800000000008280000000000827000000000083400121000000000000019000000000000015745800000000000000009999123100000010000000000000BRLANDACNOR9104
012026020202LAVV3       010LAVVI       ON      NM   R$  000000000181600000000018170000000001780000000000179400000000017800000000001780000000000179003917000000000001224200000000002196506900000000000000009999123100000010000000000000BRLAVVACNOR4119
012026020202LEVE3       010METAL LEVE  ON      NM   R$  000000000342900000000034780000000003412000000000345300000000034750000000003475000000000347801637000000000000259500000000000896227600000000000000009999123100000010000000000000BRLEVEACNOR2202
012026020202LJQQ3       010QUERO-QUERO ON      NM   R$  000000000025000000000002550000000000246000000000024900000000002490000000000248000000000024904211000000000002518200000000000627045200000000000000009999123100000010000000000000BRLJQQACNOR5105
012026020202LOGG3       010LOG COM PROPON      NM   R$  000000000278200000000028500000000002770000000000282800000000028480000000002835000000000284803022000000000000426300000000001205618800000000000000009999123100000010000000000000BRLOGGACNOR7112
012026020202LOGN3       010LOG-IN      ON      NM   R$  000000000327900000000032870000000003191000000000323200000000032350000000003235000000000325600432000000000000123600000000000399492400000000000000009999123100000010000000000000BRLOGNACNOR3105
012026020202LPSB3       010LOPES BRASILON      NM   R$  000000000017700000000001810000000000172000000000017700000000001800000000000178000000000018000322000000000000206300000000000036637500000000000000009999123100000010000000000000BRLPSBACNOR0116
012026020202LREN3       010LOJAS RENNERON      NM   R$  000000000149000000000015080000000001471000000000149100000000015050000000001504000000000150618468000000000011195400000000016698128500000000000000009999123100000010000000000000BRLRENACNOR1228
012026020202MTRE3       010MITRE REALTYON  ED  NM   R$  000000000039600000000003990000000000393000000000039500000000003970000000000395000000000039800725000000000000399800000000000158136200000000000000009999123100000010000000000000BRMTREACNOR6131
012026020202MTSA4       010METISA      PN           R$  000000000499500000000052990000000004995000000000519800000000051000000000004900000000000532000006000000000000001100000000000005718100000000000000009999123100000010000000000000BRMTSAACNPR9079
012026020202MULT3       010MULTIPLAN   ON      N2   R$  000000000331500000000033340000000003274000000000329700000000032870000000003286000000000330222839000000000005053600000000016663599600000000000000009999123100000010000000000000BRMULTACNOR5145
012026020202MWET4       010WETZEL S/A  PN           R$  000000000135000000000013500000000001350000000000135000000000013500000000001350000000000139000030000000000000250300000000000337905000000000000000009999123100000010000000000000BRMWETACNPR3118
012026020202MYPK3       010IOCHP-MAXIONON      NM   R$  000000000110200000000011020000000001081000000000108800000000010880000000001087000000000108902466000000000000895700000000000974692300000000000000009999123100000010000000000000BRMYPKACNOR7158
012026020202PRNR3       010PRINER      ON      NM   R$  000000000177900000000018380000000001755000000000181100000000018060000000001804000000000181603336000000000000694000000000001257167800000000000000009999123100000010000000000000BRPRNRACNOR4111
012026020202PSSA3       010PORTO SEGUROON      NM   R$  000000000502500000000051840000000005014000000000514800000000051760000000005169000000000517611661000000000002340000000000012046619300000000000000009999123100000010000000000000BRPSSAACNOR7161
012026020202SAPR11      010SANEPAR     UNT     N2   R$  000000000467900000000047250000000004553000000000460000000000046590000000004631000000000465910566000000000001720900000000007917012100000000000000009999123100000010000000000000BRSAPRCDAM13121
012026020202SAPR3       010SANEPAR     ON      N2   R$  000000000113900000000011670000000001110000000000113600000000011350000000001135000000000114501235000000000000291400000000000331064000000000000000009999123100000010000000000000BRSAPRACNOR9162
012026020202SAPR4       010SANEPAR     PN      N2   R$  000000000087600000000008860000000000855000000000086500000000008660000000000864000000000086703208000000000001589300000000001375715900000000000000009999123100000010000000000000BRSAPRACNPR6162
012026020202SYNE3       010SYN PROP TECON      NM   R$  000000000050400000000005050000000000495000000000049800000000004950000000000495000000000050001478000000000000482700000000000240408500000000000000009999123100000010000000000000BRSYNEACNOR2107
012026020202TAEE11      010TAESA       UNT     N2   R$  000000000417600000000042430000000004156000000000421800000000042270000000004227000000000423509459000000000002429000000000010246556300000000000000009999123100000010000000000000BRTAEECDAM10153
012026020202TAEE3       010TAESA       ON      N2   R$  000000000139400000000014090000000001370000000000139100000000013990000000001399000000000140800512000000000000078100000000000108640800000000000000009999123100000010000000000000BRTAEEACNOR9153
012026020202TAEE4       010TAESA       PN      N2   R$  000000000141500000000014220000000001396000000000141200000000014170000000001416000000000142200646000000000000141800000000000200274600000000000000009999123100000010000000000000BRTAEEACNPR6153
012026020202HAGA3       010HAGA S/A    ON           R$  000000000019500000000002000000000000195000000000019800000000001950000000000179000000000019500016000000000000004800000000000000951800000000000000009999123100000010000000000000BRHAGAACNOR7103
012026020202HAGA4       010HAGA S/A    PN           R$  000000000011400000000001190000000000114000000000011400000000001150000000000115000000000011900004000000000000001400000000000000160400000000000000009999123100000010000000000000BRHAGAACNPR4103
012026020202HAPV3       010HAPVIDA     ON      NM   R$  000000000130800000000013080000000001270000000000128000000000012740000000001273000000000127418935000000000009094900000000011645088200000000000000009999123100000010000000000000BRHAPVACNOR4119
012026020202IGTI4       010IGUATEMI S.APN      N1   R$  000000000125200000000012750000000001252000000000126300000000012750000000001101000000000000000002000000000000000200000000000000252700000000000000009999123100000010000000000000BRIGTIACNPR5108
012026020202INEP3       010INEPAR      ON           R$  000000000016000000000001720000000000156000000000016100000000001600000000000160000000000016200099000000000000048200000000000007803100000000000000009999123100000010000000000000BRINEPACNOR1145
012026020202INEP4       010INEPAR      PN           R$  000000000013000000000001300000000000125000000000012600000000001290000000000125000000000012900058000000000000025900000000000003283000000000000000009999123100000010000000000000BRINEPACNPR8145
012026020202INTB3       010INTELBRAS   ON      NM   R$  000000000123400000000012500000000001230000000000124200000000012500000000001248000000000125004351000000000001281300000000001591901500000000000000009999123100000010000000000000BRINTBACNOR9115
012026020202IRBR3       010IRBBRASIL REON      NM   R$  000000000577900000000059490000000005779000000000589300000000059390000000005933000000000594504276000000000000769900000000004537259200000000000000009999123100000010000000000000BRIRBRACNOR4113
012026020202KEPL3       010KEPLER WEBERON      NM   R$  000000000101700000000010210000000001009000000000101300000000010150000000001013000000000101602357000000000001222500000000001239180200000000000000009999123100000010000000000000BRKEPLACNOR1069
012026020202KLBN11      010KLABIN S/A  UNT     N2   R$  000000000191600000000019480000000001905000000000192900000000019210000000001920000000000193018734000000000006987600000000013479739900000000000000009999123100000010000000000000BRKLBNCDAM18151
012026020202KLBN3       010KLABIN S/A  ON      N2   R$  000000000038500000000004130000000000383000000000039000000000003910000000000389000000000039101548000000000001476600000000000576994400000000000000009999123100000010000000000000BRKLBNACNOR2179
012026020202KLBN4       010KLABIN S/A  PN      N2   R$  000000000038500000000003900000000000382000000000038600000000003880000000000387000000000038802787000000000003960100000000001529328300000000000000009999123100000010000000000000BRKLBNACNPR9179
012026020202GOLL54      010GOL         PN *P   N2   R$  000000000113800000000011380000000001028000000000112700000000011370000000001122000000000113800525000000000169756000000000000191467904000000000000009999123100010000000000000000BRGOLLA01PR5100
012026020202GPAR3       010CELGPAR     ON           R$  000000000173000000000017300000000001730000000000173000000000017300000000001700000000000250000001000000000000000100000000000000173000000000000000009999123100000010000000000000BRGPARACNOR4110
012026020202GRND3       010GRENDENE    ON      NM   R$  000000000049600000000005010000000000495000000000049800000000005010000000000500000000000050104333000000000002199700000000001096395700000000000000009999123100000010000000000000BRGRNDACNOR3182
012026020202DMVF3       010D1000VFARMA ON      NM   R$  000000000069400000000006970000000000682000000000069000000000006910000000000685000000000069100204000000000000031900000000000022024400000000000000009999123100000010000000000000BRDMVFACNOR9100
012026020202DOHL4       010DOHLER      PN           R$  000000000040500000000004060000000000370000000000038100000000003980000000000379000000000038700012000000000000006900000000000002630000000000000000009999123100000010000000000000BRDOHLACNPR9067
012026020202DOTZ3       010DOTZ SA     ON      NM   R$  000000000038900000000003890000000000373000000000037900000000003730000000000373000000000038000048000000000000009100000000000003455900000000000000009999123100000010000000000000BRDOTZACNOR7101
012026020202BMOB3       010BEMOBI TECH ON      NM   R$  000000000250400000000025150000000002464000000000249200000000024890000000002489000000000250801426000000000000257500000000000641833600000000000000009999123100000010000000000000BRBMOBACNOR7107
012026020202TOTS3       010TOTVS       ON      NM   R$  000000000446300000000045200000000004445000000000448400000000045070000000004503000000000451019935000000000005616300000000025183622300000000000000009999123100000010000000000000BRTOTSACNOR8150
012026020202TPIS3       010TRIUNFO PARTON      NM   R$  000000000054000000000005490000000000520000000000052500000000005200000000000520000000000053900058000000000000017400000000000009139300000000000000009999123100000010000000000000BRTPISACNOR8120
012026020202VVEO3       010VIVEO       ON      NM   R$  000000000014500000000001470000000000144000000000014500000000001450000000000144000000000014500346000000000000342100000000000049728600000000000000009999123100000010000000000000BRVVEOACNOR0104
012026020202GSHP3       010GENERALSHOPPON           R$  000000000034900000000003490000000000349000000000034900000000003490000000000305000000000039800002000000000000000500000000000000174500000000000000009999123100000010000000000000BRGSHPACNOR7102
012026020202GUAR3       010GUARARAPES  ON      NM   R$  000000000097900000000010170000000000979000000000100600000000010170000000001010000000000101705390000000000002033400000000002046613400000000000000009999123100000010000000000000BRGUARACNOR4175
012026020202DXCO3       010DEXCO       ON      NM   R$  000000000057300000000005790000000000561000000000056700000000005660000000000565000000000056802761000000000001875000000000001063142000000000000000009999123100000010000000000000BRDXCOACNOR8108
012026020202EALT3       010ACO ALTONA  ON           R$  000000000143900000000014500000000001439000000000144800000000014500000000001410000000000145000028000000000000008400000000000012164200000000000000009999123100000010000000000000BREALTACNOR4140
012026020202EALT4       010ACO ALTONA  PN           R$  000000000143600000000014750000000001425000000000145200000000014750000000001464000000000147500133000000000000040800000000000059269400000000000000009999123100000010000000000000BREALTACNPR1140
012026020202WDCN3       010WDC NETWORKSON      NM   R$  000000000027200000000002730000000000264000000000026800000000002710000000000266000000000027100055000000000000037500000000000010077500000000000000009999123100000010000000000000BRWDCNACNOR2100
012026020202WEGE3       010WEG         ON      NM   R$  000000000517700000000052390000000005132000000000518200000000051950000000005190000000000519625701000000000006846500000000035479008600000000000000009999123100000010000000000000BRWEGEACNOR0234
012026020202VIVR3       010VIVER       ON      NM   R$  000000000006300000000000650000000000061000000000006200000000000630000000000062000000000006300100000000000000176700000000000011033600000000000000009999123100000010000000000000BRVIVRACNOR4125
012026020202VIVT3       010TELEF BRASILON           R$  000000000373300000000038050000000003724000000000376000000000037460000000003746000000000376518211000000000005136600000000019317097800000000000000009999123100000010000000000000BRVIVTACNOR0199
012026020202AVLL3       010ALPHAVILLE  ON      NM   R$  000000000008500000000000880000000000085000000000008700000000000860000000000085000000000008700012000000000000008400000000000000736100000000000000009999123100000010000000000000BRAVLLACNOR5103
012026020202AXIA3       010AXIA ENERGIAON      N1   R$  000000000544100000000056090000000005410000000000555200000000055600000000005545000000000556048084000000000014564600000000080873031900000000000000009999123100000010000000000000BRAXIAACNOR0102
012026020202AXIA6       010AXIA ENERGIAPNB     N1   R$  000000000580100000000059490000000005794000000000589700000000059190000000005903000000000592008605000000000001666700000000009829764200000000000000009999123100000010000000000000BRAXIAACNPB1103
012026020202AXIA7       010AXIA ENERGIAPNC     N1   R$  000000000532800000000054350000000005249000000000538300000000054000000000005398000000000540909872000000000002586900000000013925842700000000000000009999123100000010000000000000BRAXIAACNPC9100
012026020202ECOR3       010ECORODOVIAS ON      NM   R$  000000000118200000000011880000000001148000000000116300000000011750000000001167000000000117515989000000000007177900000000008350333900000000000000009999123100000010000000000000BRECORACNOR8122
012026020202EGIE3       010ENGIE BRASILON      NM   R$  000000000328700000000033590000000003268000000000332000000000033510000000003345000000000335312564000000000002163700000000007184756400000000000000009999123100000010000000000000BREGIEACNOR9132
012026020202VLID3       010VALID       ON      NM   R$  000000000220700000000022350000000002187000000000221400000000022110000000002211000000000222601617000000000000218700000000000484276800000000000000009999123100000010000000000000BRVLIDACNOR5148
012026020202VSTE3       010VESTE       ON      NM   R$  000000000036700000000003710000000000363000000000036500000000003680000000000367000000000036800030000000000000036900000000000013497300000000000000009999123100000010000000000000BRVSTEACNOR5104
012026020202VTRU3       010VITRUEDUCA  ON      NM   R$  000000000166700000000017380000000001667000000000169500000000016890000000001687000000000169003343000000000000812400000000001377119800000000000000009999123100000010000000000000BRVTRUACNOR3101
012026020202VULC3       010VULCABRAS   ON      NM   R$  000000000180000000000018190000000001798000000000180800000000018070000000001804000000000180807567000000000002358000000000004264003500000000000000009999123100000010000000000000BRVULCACNOR2181
012026020202CRPG5       010CRISTAL     PNA          R$  000000000190100000000019940000000001851000000000188100000000018920000000001891000000000194800015000000000000002300000000000004327800000000000000009999123100000010000000000000BRCRPGACNPA3119
012026020202CRPG6       010CRISTAL     PNB          R$  000000000189900000000018990000000001899000000000189900000000018990000000001841000000000192900001000000000000000100000000000000189900000000000000009999123100000010000000000000BRCRPGACNPB1119
012026020202CSAN3       010COSAN       ON      NM   R$  000000000059400000000005980000000000576000000000058200000000005820000000000581000000000058219932000000000022396400000000013051203500000000000000009999123100000010000000000000BRCSANACNOR6128
012026020202CPFE3       010CPFL ENERGIAON      NM   R$  000000000514500000000051800000000005085000000000511600000000051110000000005110000000000512011403000000000002256800000000011546557100000000000000009999123100000010000000000000BRCPFEACNOR0138
012026020202CPLE3       010COPEL       ON      NM   R$  000000000132000000000013310000000001309000000000131700000000013190000000001317000000000131938896000000000018400600000000024244812000000000000000009999123100000010000000000000BRCPLEACNOR8153
012026020202FRAS3       010FRAS-LE     ON      N1   R$  000000000241600000000024490000000002410000000000243200000000024370000000002433000000000244001140000000000000381600000000000928322000000000000000009999123100000010000000000000BRFRASACNOR0163
012026020202GEPA4       010GER PARANAP PN           R$  000000000349900000000035000000000003499000000000349900000000035000000000003467000000000349500004000000000000000400000000000001399800000000000000009999123100000010000000000000BRGEPAACNPR9165
012026020202GFSA3       010GAFISA      ON      NM   R$  000000000043500000000004350000000000403000000000041200000000004050000000000405000000000040600888000000000001034500000000000427086300000000000000009999123100000010000000000000BRGFSAACNOR3127
012026020202GGBR3       010GERDAU      ON      N1   R$  000000000191500000000019440000000001900000000000192500000000019220000000001920000000000193600149000000000000028700000000000055260100000000000000009999123100000010000000000000BRGGBRACNOR1198
012026020202GGBR4       010GERDAU      PN      N1   R$  000000000225100000000022690000000002241000000000225400000000022590000000002255000000000226015102000000000008184500000000018451493700000000000000009999123100000010000000000000BRGGBRACNPR8198
012026020202IBOV11      010IBOVESPA    IBO/         R$  000001820370000000182037000000018203700000001820370000000182037000000000000000000000000000000005000000000000000115000000000020934255000000000000009999123100001000000000000000BRIBOVINDM18015
012026020202RANI3       010IRANI       ON      NM   R$  000000000090900000000009180000000000889000000000090500000000009100000000000910000000000091401292000000000000478200000000000433007000000000000000009999123100000010000000000000BRRANIACNOR5079
012026020202RAPT3       010RANDON PART ON      N1   R$  000000000066800000000006680000000000649000000000065700000000006510000000000650000000000065500087000000000000025400000000000016689200000000000000009999123100000010000000000000BRRAPTACNOR7166
012026020202RAPT4       010RANDON PART PN      N1   R$  000000000064100000000006620000000000640000000000064900000000006440000000000643000000000064608845000000000005436200000000003528238400000000000000009999123100000010000000000000BRRAPTACNPR4166
012026020202NUTR3       010NUTRIPLANT  ON      MA   R$  000000000025000000000002500000000000245000000000024800000000002500000000000247000000000025200013000000000000001400000000000000347600000000000000009999123100000010000000000000BRNUTRACNOR0104
012026020202OBTC3       010ORANJEBTC   ON           R$  000000000075600000000007670000000000735000000000075000000000007400000000000740000000000074402574000000000000753900000000000566092600000000000000009999123100000010000000000000BROBTCACNOR0100
012026020202ODPV3       010ODONTOPREV  ON      NM   R$  000000000118900000000012260000000001189000000000120400000000012120000000001202000000000121207672000000000003053300000000003677556300000000000000009999123100000010000000000000BRODPVACNOR4213
012026020202OFSA3       010OUROFINO S/AON      NM   R$  000000000245500000000024750000000002455000000000247300000000024740000000002418000000000245500005000000000000001100000000000002720300000000000000009999123100000010000000000000BROFSAACNOR7122
012026020202ONCO3       010ONCOCLINICASON      NM   R$  000000000023600000000002460000000000235000000000023900000000002380000000000238000000000023901597000000000001761900000000000421562600000000000000009999123100000010000000000000BRONCOACNOR6102
012026020202OPCT3       010OCEANPACT   ON      NM   R$  000000000094100000000009620000000000934000000000094800000000009620000000000951000000000096202233000000000000434300000000000411948900000000000000009999123100000010000000000000BROPCTACNOR0100
012026020202ORVR3       010ORIZON      ON      NM   R$  000000000743200000000075880000000007432000000000754100000000075330000000007528000000000757504837000000000000712800000000005375586700000000000000009999123100000010000000000000BRORVRACNOR0101
012026020202RAIL3       010RUMO S.A.   ON      NM   R$  000000000149400000000014970000000001463000000000147400000000014750000000001473000000000147519938000000000008858500000000013063499300000000000000009999123100000010000000000000BRRAILACNOR9106
012026020202RAIZ4       010RAIZEN      PN      N2   R$  000000000010300000000001030000000000092000000000009500000000000940000000000094000000000009516770000000000045261900000000004332264900000000000000009999123100000010000000000000BRRAIZACNPR6112
012026020202ENGI11      010ENERGISA    UNT     N2   R$  000000000521600000000052490000000005042000000000508200000000050640000000005063000000000507114195000000000002935700000000014921315800000000000000009999123100000010000000000000BRENGICDAM16140
012026020202ENGI3       010ENERGISA    ON      N2   R$  000000000128500000000012860000000001270000000000128000000000012710000000001270000000000128600032000000000000006300000000000008067200000000000000009999123100000010000000000000BRENGIACNOR0150
012026020202ENGI4       010ENERGISA    PN      N2   R$  000000000095900000000009590000000000948000000000095300000000009490000000000948000000000094900044000000000000009100000000000008673700000000000000009999123100000010000000000000BRENGIACNPR7146
012026020202ENJU3       010ENJOEI      ON      NM   R$  000000000010800000000001110000000000108000000000010900000000001080000000000108000000000010900168000000000000179700000000000019609400000000000000009999123100000010000000000000BRENJUACNOR9100
012026020202EPAR3       010EMBPAR S/A  ON           R$  000000000037100000000003750000000000370000000000037100000000003740000000000370000000000037400038000000000000006600000000000002455100000000000000009999123100000010000000000000BREPARACNOR9107
012026020202EQPA3       010EQTL PARA   ON           R$  000000000065400000000006540000000000633000000000064500000000006400000000000634000000000064600028000000000000006700000000000004322700000000000000009999123100000010000000000000BREQPAACNOR1112
012026020202EQTL3       010EQUATORIAL  ON      NM   R$  000000000411600000000041160000000004050000000000407700000000040950000000004075000000000409527841000000000008254600000000033659802900000000000000009999123100000010000000000000BREQTLACNOR0135
012026020202ITSA3       010ITAUSA      ON      N1   R$  000000000138200000000014000000000001380000000000138800000000013960000000001393000000000139600609000000000000115700000000000160653900000000000000009999123100000010000000000000BRITSAACNOR0455
012026020202ITSA4       010ITAUSA      PN      N1   R$  000000000137600000000013940000000001369000000000138100000000013860000000001385000000000138632566000000000026323100000000036377705400000000000000009999123100000010000000000000BRITSAACNPR7455
012026020202LUPA3       010LUPATECH    ON      NM   R$  000000000011800000000001200000000000117000000000011800000000001190000000000118000000000011900030000000000000013000000000000001544100000000000000009999123100000010000000000000BRLUPAACNOR8112
012026020202LUXM4       010TREVISA     PN           R$  000000000046500000000004650000000000419000000000042600000000004190000000000419000000000045600008000000000000001100000000000000468800000000000000009999123100000010000000000000BRLUXMACNPR4053
012026020202LWSA3       010LWSA        ON      NM   R$  000000000048900000000004930000000000477000000000048500000000004930000000000487000000000049307549000000000005258000000000002554849600000000000000009999123100000010000000000000BRLWSAACNOR8105
012026020202NATU3       010NATURA      ON      NM   R$  000000000088000000000008830000000000859000000000087100000000008750000000000875000000000087814062000000000007506100000000006542668100000000000000009999123100000010000000000000BRNATUACNOR6137
012026020202PTBL3       010PORTOBELLO  ON      NM   R$  000000000035000000000003560000000000343000000000034600000000003430000000000343000000000034600281000000000000110300000000000038230200000000000000009999123100000010000000000000BRPTBLACNOR8132
012026020202PTNT3       010PETTENATI   ON           R$  000000000084000000000008400000000000831000000000083500000000008380000000000833000000000083800005000000000000002000000000000001671800000000000000009999123100000010000000000000BRPTNTACNOR6044
012026020202PTNT4       010PETTENATI   PN           R$  000000000082600000000008300000000000824000000000082700000000008300000000000825000000000083200071000000000000041800000000000034580400000000000000009999123100000010000000000000BRPTNTACNPR3049
012026020202QUAL3       010QUALICORP   ON      NM   R$  000000000022600000000002350000000000223000000000023000000000002350000000000231000000000023501988000000000003414600000000000787419500000000000000009999123100000010000000000000BRQUALACNOR6122
012026020202RADL3       010RAIADROGASILON      NM   R$  000000000247000000000025200000000002439000000000249700000000025200000000002515000000000252232504000000000009895800000000024716560200000000000000009999123100000010000000000000BRRADLACNOR0165
012026020202SBFG3       010GRUPO SBF   ON      NM   R$  000000000144600000000014480000000001409000000000142800000000014390000000001439000000000144003926000000000001094500000000001563509600000000000000009999123100000010000000000000BRSBFGACNOR1104
012026020202SBSP3       010SABESP      ON      NM   R$  000000001423400000000144350000000014136000000001430000000000143540000000014311000000001435713213000000000002376700000000033987209500000000000000009999123100000010000000000000BRSBSPACNOR5165
012026020202TASA3       010TAURUS ARMASON      N2   R$  000000000054500000000005550000000000540000000000054400000000005550000000000547000000000055400059000000000000008500000000000004624700000000000000009999123100000010000000000000BRTASAACNOR7106
012026020202TASA4       010TAURUS ARMASPN      N2   R$  000000000053700000000005400000000000528000000000053400000000005350000000000535000000000053601081000000000000384600000000000205588800000000000000009999123100000010000000000000BRTASAACNPR4106
012026020202TCSA3       010TECNISA     ON      NM   R$  000000000015000000000001650000000000150000000000015900000000001630000000000161000000000016300386000000000000463100000000000073718500000000000000009999123100000010000000000000BRTCSAACNOR3112
012026020202VALE3       010VALE        ON      NM   R$  000000000844200000000085850000000008404000000000849000000000084820000000008482000000000849548560000000000022289400000000189241592400000000000000009999123100000010000000000000BRVALEACNOR0218
012026020202VAMO3       010VAMOS       ON      NM   R$  000000000039900000000004090000000000394000000000040200000000004070000000000406000000000040708883000000000012957300000000005215892800000000000000009999123100000010000000000000BRVAMOACNOR7109
012026020202VBBR3       010VIBRA       ON      NM   R$  000000000289900000000029710000000002870000000000293000000000029620000000002956000000000296220091000000000007706100000000022581349700000000000000009999123100000010000000000000BRVBBRACNOR1114
012026020202JALL3       010JALLESMACHADON      NM   R$  000000000029800000000002980000000000285000000000028800000000002900000000000290000000000029203762000000000001950700000000000562613700000000000000009999123100000010000000000000BRJALLACNOR0106
012026020202RECV3       010PETRORECSA  ON      NM   R$  000000000110500000000011150000000001072000000000108400000000010940000000001094000000000109515528000000000007667200000000008317313200000000000000009999123100000010000000000000BRRECVACNOR3110
012026020202REDE3       010REDE ENERGIAON           R$  000000000061800000000006220000000000616000000000061900000000006220000000000620000000000062200013000000000000001400000000000000867100000000000000009999123100000010000000000000BRREDEACNOR7134
012026020202RENT3       010LOCALIZA    ON      NM   R$  000000000488500000000049660000000004838000000000491400000000049570000000004951000000000496022425000000000006387100000000031392006800000000000000009999123100000010000000000000BRRENTACNOR4205
012026020202RENT4       010LOCALIZA    PN      NM   R$  000000000473800000000047940000000004670000000000473800000000047940000000004764000000000479400994000000000000150600000000000713657900000000000000009999123100000010000000000000BRRENTACNPR1100
012026020202SMFT3       010SMART FIT   ON      NM   R$  000000000223400000000022540000000002198000000000222900000000022520000000002246000000000225218915000000000005646300000000012586622900000000000000009999123100000010000000000000BRSMFTACNOR1118
012026020202SMTO3       010SAO MARTINHOON      NM   R$  000000000150500000000015260000000001499000000000150800000000015210000000001520000000000152605244000000000002228900000000003362754900000000000000009999123100000010000000000000BRSMTOACNOR3129
012026020202UNIP3       010UNIPAR      ON           R$  000000000600000000000060590000000006000000000000603200000000060590000000006003000000000606000034000000000000004800000000000028954200000000000000009999123100000010000000000000BRUNIPACNOR7210
012026020202UNIP6       010UNIPAR      PNB          R$  000000000628700000000063970000000006287000000000636000000000063730000000006370000000000637301098000000000000162100000000001031020600000000000000009999123100000010000000000000BRUNIPACNPB8210
012026020202USIM3       010USIMINAS    ON      N1   R$  000000000062600000000006470000000000626000000000063900000000006470000000000644000000000064800849000000000000433600000000000277158800000000000000009999123100000010000000000000BRUSIMACNOR3167
012026020202USIM5       010USIMINAS    PNA     N1   R$  000000000063000000000006510000000000623000000000064100000000006480000000000648000000000064910322000000000012925900000000008287777400000000000000009999123100000010000000000000BRUSIMACNPA6172
012026020202YDUQ3       010YDUQS PART  ON      NM   R$  000000000146800000000014920000000001449000000000146500000000014490000000001449000000000145008865000000000002707400000000003968135400000000000000009999123100000010000000000000BRYDUQACNOR3108
012026020202TRAD3       010TC          ON      NM   R$  000000000029500000000002980000000000295000000000029600000000002970000000000297000000000030000037000000000000018900000000000005597300000000000000009999123100000010000000000000BRTRADACNOR3102
012026020202TRIS3       010TRISUL      ON      NM   R$  000000000070900000000007270000000000709000000000072000000000007230000000000718000000000072300997000000000000491200000000000353708600000000000000009999123100000010000000000000BRTRISACNOR4122
012026020202TTEN3       0103TENTOS     ON      NM   R$  000000000166700000000016980000000001656000000000168100000000016750000000001669000000000167507651000000000001623000000000002729662400000000000000009999123100000010000000000000BRTTENACNOR0105
012026020202TUPY3       010TUPY        ON      NM   R$  000000000125200000000012570000000001227000000000124100000000012330000000001231000000000123405960000000000001291100000000001603022200000000000000009999123100000010000000000000BRTUPYACNOR1185
012026020202UCAS3       010UNICASA     ON      NM   R$  000000000014100000000001420000000000137000000000013900000000001420000000000138000000000014200083000000000000038400000000000005370400000000000000009999123100000010000000000000BRUCASACNOR1114
012026020202UGPA3       010ULTRAPAR    ON      NM   R$  000000000256400000000025870000000002529000000000255700000000025870000000002585000000000258720865000000000006793400000000017372589700000000000000009999123100000010000000000000BRUGPAACNOR8159
012026020202WEST3       010WESTWING    ON      NM   R$  000000000058700000000005980000000000587000000000059000000000005900000000000573000000000059700011000000000000005100000000000003009300000000000000009999123100000010000000000000BRWESTACNOR3101
012026020202WHRL3       010WHIRLPOOL   ON           R$  000000000045300000000004530000000000443000000000044600000000004430000000000442000000000044600005000000000000000500000000000000223300000000000000009999123100000010000000000000BRWHRLACNOR5135
012026020202WHRL4       010WHIRLPOOL   PN           R$  000000000047500000000004750000000000468000000000047300000000004750000000000471000000000047500028000000000000004000000000000001894200000000000000009999123100000010000000000000BRWHRLACNPR2135
012026020202WIZC3       010WIZ CO      ON      NM   R$  000000000099500000000010340000000000995000000000101700000000010220000000001019000000000102204386000000000000841900000000000856628600000000000000009999123100000010000000000000BRWIZCACNOR5104
012026020202TFCO4       010TRACK FIELD PN      N2   R$  000000000157500000000015900000000001542000000000157100000000015800000000001574000000000158002697000000000000627400000000000986213200000000000000009999123100000010000000000000BRTFCOACNPR8121
012026020202TGMA3       010TEGMA       ON      NM   R$  000000000388800000000039880000000003888000000000397000000000039880000000003979000000000398801278000000000000277100000000001100237300000000000000009999123100000010000000000000BRTGMAACNOR7150
012026020202TIMS3       010TIM         ON      NM   R$  000000000247600000000024950000000002421000000000247100000000024660000000002465000000000246715364000000000007404400000000018297585400000000000000009999123100000010000000000000BRTIMSACNOR5129
012026020202TOKY3       010GRUPO TOKY  ON      NM   R$  000000000006300000000000630000000000059000000000006100000000000600000000000060000000000006100573000000000000442000000000000027083900000000000000009999123100000010000000000000BRTOKYACNOR5101
012026020202BMEB3       010MERCANTIL   ON      N1   R$  000000000585000000000063000000000005850000000000609100000000062490000000006100000000000625000019000000000000002800000000000017056300000000000000009999123100000010000000000000BRBMEBACNOR8210
012026020202BMEB4       010MERCANTIL   PN      N1   R$  000000000760000000000076790000000007300000000000746500000000075400000000007500000000000761000204000000000000031500000000000235172400000000000000009999123100000010000000000000BRBMEBACNPR5215
012026020202BMGB4       010BANCO BMG   PN  ES  N1   R$  000000000050000000000005030000000000492000000000049700000000004950000000000495000000000049701906000000000001146900000000000570086500000000000000009999123100000010000000000000BRBMGBACNPR0118
012026020202BMIN4       010MERC INVEST PN           R$  000000000208000000000020800000000001905000000000199200000000019050000000001932000000000208000002000000000000000200000000000000398500000000000000009999123100000010000000000000BRBMINACNPR1177
012026020202BMKS3       010BIC MONARK  ON           R$  000000003838000000000387000000000037803000000003824300000000386990000000037853000000003869900017000000000000000038000000000001453237000000000000009999123100000010000000000000BRBMKSACNOR9169
012026020202PETR3       010PETROBRAS   ON      N2   R$  000000000396000000000039720000000003908000000000393900000000039590000000003950000000000395924465000000000014946400000000058881874500000000000000009999123100000010000000000000BRPETRACNOR9212
012026020202PETR4       010PETROBRAS   PN      N2   R$  000000000368500000000037240000000003662000000000369600000000037240000000003721000000000372547300000000000038505600000000142331112500000000000000009999123100000010000000000000BRPETRACNPR6223
012026020202PFRM3       010PROFARMA    ON      NM   R$  000000000094100000000009410000000000876000000000089400000000009020000000000898000000000090302276000000000000677300000000000605805300000000000000009999123100000010000000000000BRPFRMACNOR1122
012026020202PGMN3       010PAGUE MENOS ON      NM   R$  000000000064900000000006890000000000649000000000067400000000006850000000000685000000000068606689000000000004821000000000003254121900000000000000009999123100000010000000000000BRPGMNACNOR8106
012026020202PINE3       010PINE        ON      N2   R$  000000000128000000000013300000000001272000000000130000000000013010000000001281000000000133000024000000000000005400000000000007024200000000000000009999123100000010000000000000BRPINEACNOR1160
012026020202PINE4       010PINE        PN      N2   R$  000000000133700000000013910000000001330000000000136400000000013860000000001379000000000138601004000000000000240400000000000327973800000000000000009999123100000010000000000000BRPINEACNPR8160
012026020202PLAS3       010PLASCAR PARTON           R$  000000000050000000000005190000000000490000000000050300000000004900000000000473000000000050900003000000000000000300000000000000150900000000000000009999123100000010000000000000BRPLASACNOR2106
012026020202PLPL3       010PLANOEPLANO ON      NM   R$  000000000150300000000015440000000001503000000000151900000000015190000000001513000000000152004944000000000001309100000000001989361600000000000000009999123100000010000000000000BRPLPLACNOR5106
012026020202PNVL3       010DIMED       ON      NM   R$  000000000132300000000013660000000001315000000000134500000000013580000000001358000000000136111686000000000002424900000000003262319100000000000000009999123100000010000000000000BRPNVLACNOR9213
012026020202POMO3       010MARCOPOLO   ON      N2   R$  000000000060200000000006190000000000600000000000061200000000006100000000000610000000000061500979000000000000519700000000000318230900000000000000009999123100000010000000000000BRPOMOACNOR0105
012026020202POMO4       010MARCOPOLO   PN      N2   R$  000000000064800000000006570000000000646000000000065300000000006570000000000656000000000065710383000000000007506300000000004905375200000000000000009999123100000010000000000000BRPOMOACNPR7105
012026020202SCAR3       010SAO CARLOS  ON      NM   R$  000000000150000000000015450000000001487000000000152100000000015380000000001526000000000154000348000000000000052100000000000079279600000000000000009999123100000010000000000000BRSCARACNOR7133
012026020202SEER3       010SER EDUCA   ON      NM   R$  000000000125000000000012610000000001227000000000124500000000012530000000001244000000000125305418000000000001117700000000001392232300000000000000009999123100000010000000000000BRSEERACNOR5120
012026020202SEQL3       010SEQUOIA LOG ON      NM   R$  000000000016900000000001690000000000130000000000014000000000001310000000000131000000000013401003000000000000981400000000000137842200000000000000009999123100000010000000000000BRSEQLACNOR2108
012026020202SHOW3       010TIME FOR FUNON      NM   R$  000000000059000000000005900000000000578000000000058200000000005860000000000585000000000058600217000000000000030700000000000017881400000000000000009999123100000010000000000000BRSHOWACNOR7106
012026020202SHUL4       010SCHULZ      PN           R$  000000000053000000000005330000000000519000000000052400000000005300000000000530000000000053100731000000000000384800000000000202013200000000000000009999123100000010000000000000BRSHULACNPR4163
012026020202SIMH3       010SIMPAR      ON      NM   R$  000000000066900000000006740000000000649000000000066200000000006700000000000666000000000067007335000000000005204900000000003450730200000000000000009999123100000010000000000000BRSIMHACNOR0109
012026020202SLCE3       010SLC AGRICOLAON      NM   R$  000000000161300000000016130000000001575000000000158900000000015940000000001593000000000159904808000000000001770100000000002813696200000000000000009999123100000010000000000000BRSLCEACNOR2128
012026020202CXSE3       010CAIXA SEGURION      NM   R$  000000000174000000000017900000000001740000000000176600000000017900000000001790000000000179224970000000000011221200000000019816928000000000000000009999123100000010000000000000BRCXSEACNOR7114
012026020202CYRE3       010CYRELA REALTON      NM   R$  000000000300400000000030640000000002992000000000303500000000030630000000003060000000000306411976000000000004146100000000012585966800000000000000009999123100000010000000000000BRCYREACNOR7143
012026020202ESPA3       010ESPACOLASER ON      NM   R$  000000000008500000000000890000000000085000000000008700000000000890000000000087000000000008900165000000000000315700000000000027734500000000000000009999123100000010000000000000BRESPAACNOR7105
012026020202ETER3       010ETERNIT     ON      NM   R$  000000000040000000000004040000000000396000000000039900000000004030000000000400000000000040300310000000000000144700000000000057781800000000000000009999123100000010000000000000BRETERACNOR3246
012026020202EUCA3       010EUCATEX     ON      N1   R$  000000000212000000000021200000000002102000000000210800000000021020000000002055000000000216000006000000000000000700000000000001476000000000000000009999123100000010000000000000BREUCAACNOR1159
012026020202EUCA4       010EUCATEX     PN      N1   R$  000000000208800000000021000000000002067000000000209300000000020890000000002089000000000209900277000000000000042900000000000089801500000000000000009999123100000010000000000000BREUCAACNPR8046
012026020202EVEN3       010EVEN        ON      NM   R$  000000000079900000000008130000000000791000000000080000000000007980000000000797000000000080602258000000000000807100000000000646456500000000000000009999123100000010000000000000BREVENACNOR8121
012026020202ITUB3       010ITAUUNIBANCOON  EJ  N1   R$  000000000420500000000042770000000004202000000000425900000000042730000000004273000000000427804438000000000000816900000000003479408400000000000000009999123100000010000000000000BRITUBACNOR4365
012026020202ITUB4       010ITAUUNIBANCOPN  EJ  N1   R$  000000000457900000000046100000000004543000000000458300000000045880000000004588000000000459040736000000000028095400000000128771149400000000000000009999123100000010000000000000BRITUBACNPR1365
012026020202BHIA3       010CASAS BAHIA ON      NM   R$  000000000032200000000003220000000000308000000000031300000000003120000000000312000000000031304374000000000004147700000000001299975500000000000000009999123100000010000000000000BRBHIAACNOR1104
012026020202BIED3       010BIOMA EDUC  ON      MA   R$  000000000051800000000005180000000000499000000000050300000000004990000000000451000000000049900007000000000000002600000000000001307900000000000000009999123100000010000000000000BRBIEDACNOR2101
012026020202MATD3       010MATER DEI   ON      NM   R$  000000000058300000000006070000000000579000000000059600000000005950000000000595000000000060101933000000000000324600000000000193553800000000000000009999123100000010000000000000BRMATDACNOR4106
012026020202MBRF3       010MARFRIG     ON      NM   R$  000000000187000000000019130000000001870000000000189000000000018870000000001886000000000189011816000000000005122200000000009683458800000000000000009999123100000010000000000000BRMBRFACNOR1100
012026020202NEOE3       010NEOENERGIA  ON      NM   R$  000000000323800000000032450000000003237000000000324000000000032450000000003238000000000324501874000000000000996400000000003228895100000000000000009999123100000010000000000000BRNEOEACNOR3127
012026020202NGRD3       010NEOGRID     ON      NM   R$  000000000269900000000027990000000002631000000000271200000000027990000000002704000000000279900052000000000000014200000000000038520500000000000000009999123100000010000000000000BRNGRDACNOR3106
012026020202AALR3       010ALLIAR      ON      NM   R$  000000000047500000000004750000000000441000000000045900000000004520000000000447000000000045200047000000000000012000000000000005518100000000000000009999123100000010000000000000BRAALRACNOR6104
012026020202ABCB4       010ABC BRASIL  PN      N2   R$  000000000268200000000027180000000002664000000000269500000000027180000000002718000000000271905299000000000001201700000000003239223100000000000000009999123100000010000000000000BRABCBACNPR4150
012026020202ABEV3       010AMBEV S/A   ON           R$  000000000149800000000015180000000001484000000000150500000000015060000000001506000000000150719349000000000019323000000000029088763800000000000000009999123100000010000000000000BRABEVACNOR1134
012026020207TXRX4       010TEX RENAUX  PN           R$  000000000018800000000001920000000000188000000000018900000000001920000000000160000000000019000003000000000000000300000000000000056800000000000000009999123100000010000000000000BRTXRXACNPR0142
012026020208RPMG3       010PET MANGUINHON           R$  000000000021100000000002110000000000208000000000020800000000002080000000000209000000000021200004000000000000001000000000000000208900000000000000009999123100000010000000000000BRRPMGACNOR9194
012026020208RSID3       010ROSSI RESID ON      NM   R$  000000000017000000000001700000000000170000000000017000000000001700000000000170000000000017400004000000000000004500000000000000765000000000000000009999123100000010000000000000BRRSIDACNOR8121
012026020208JFEN3       010JOAO FORTES ON           R$  000000000011500000000001150000000000100000000000010200000000001010000000000101000000000010200098000000000000053200000000000005476700000000000000009999123100000010000000000000BRJFENACNOR0061
012026020208CTSA3       010SANTANENSE  ON           R$  000000000028000000000002800000000000280000000000028000000000002800000000000222000000000028400001000000000000000100000000000000028000000000000000009999123100000010000000000000BRCTSAACNOR3063
012026020208CTSA4       010SANTANENSE  PN           R$  000000000020600000000002060000000000206000000000020600000000002060000000000205000000000021900001000000000000000100000000000000020600000000000000009999123100000010000000000000BRCTSAACNPR0063
012026020208AGXY3       010AGROGALAXY  ON      NM   R$  000000000027700000000003030000000000277000000000029000000000002850000000000284000000000028500206000000000000045800000000000013292000000000000000009999123100000010000000000000BRAGXYACNOR4104
012026020208AMBP3       010AMBIPAR     ON      NM   R$  000000000002800000000000290000000000028000000000002800000000000280000000000028000000000002901681000000000005804600000000000163361500000000000000009999123100000010000000000000BRAMBPACNOR6105
012026020208AMER3       010AMERICANAS  ON      NM   R$  000000000057000000000005780000000000559000000000056700000000005700000000000564000000000057002355000000000001566900000000000889653500000000000000009999123100000010000000000000BRAMERACNOR6103
012026020208BDLL3       010BARDELLA    ON           R$  000000000070500000000007050000000000705000000000070500000000007050000000000705000000000083000001000000000000000100000000000000070500000000000000009999123100000010000000000000BRBDLLACNOR1149
012026020208BDLL4       010BARDELLA    PN           R$  000000000059000000000005900000000000590000000000059000000000005900000000000585000000000068000001000000000000000700000000000000413000000000000000009999123100000010000000000000BRBDLLACNPR8151
012026020208CTAX3       010CONTAX      ON           R$  000000000009600000000000960000000000091000000000009200000000000910000000000092000000000009500005000000000000001500000000000000138700000000000000009999123100000010000000000000BRCTAXACNOR3119
012026020208HOOT4       010HOTEIS OTHONPN           R$  000000000070000000000007000000000000697000000000069900000000007000000000000693000000000070000005000000000000001000000000000000699300000000000000009999123100000010000000000000BRHOOTACNPR9015
012026020208LIGT3       010LIGHT S/A   ON      NM   R$  000000000050900000000005340000000000504000000000051800000000005160000000000510000000000051602949000000000001589900000000000824545100000000000000009999123100000010000000000000BRLIGTACNOR2125
012026020208BOBR4       010BOMBRIL     PN           R$  000000000012100000000001210000000000121000000000012100000000001210000000000120000000000012100018000000000000006400000000000000774400000000000000009999123100000010000000000000BRBOBRACNPR3128
012026020208OIBR3       010OI          ON      N1   R$  000000000001800000000000180000000000018000000000001800000000000180000000000018000000000001900193000000000001147300000000000020651400000000000000009999123100000010000000000000BROIBRACNOR1112
012026020208OIBR4       010OI          PN      N1   R$  000000000011600000000001160000000000116000000000011600000000001160000000000116000000000012900007000000000000001900000000000000220400000000000000009999123100000010000000000000BROIBRACNPR8111
012026020208OSXB3       010OSX BRASIL  ON      NM   R$  000000000017900000000001790000000000179000000000017900000000001790000000000179000000000018000004000000000000000400000000000000071600000000000000009999123100000010000000000000BROSXBACNOR8109
012026020208PMAM3       010PARANAPANEMAON      NM   R$  000000000007300000000000750000000000067000000000006900000000000680000000000067000000000006801687000000000004516500000000000312556300000000000000009999123100000010000000000000BRPMAMACNOR3045
012026020208NEXP3       010NEXPE       ON           R$  000000000028100000000002850000000000281000000000028100000000002850000000000283000000000029600004000000000000000500000000000000140900000000000000009999123100000010000000000000BRNEXPACNOR0101
012026020210BGIP2       010BANESE      DIR PRE      R$  000000000046900000000004690000000000321000000000035900000000003210000000000200000000000040000005000000000000000600000000000000215400000000000000009999123100000010000000000000BRBGIPD10PR4214
012026020210IFCM1       010INFRACOMM   DIR ORD NM   R$  000000000000100000000000010000000000001000000000000100000000000010000000000000000000000000100292000000000000386300000000000000386300000000000000009999123100000010000000000000BRIFCMD06OR2108
012026020210SMFT9       010SMART FIT   ON  REC NM   R$  000000000220000000000022590000000002200000000000222500000000022590000000002000000000000229900004000000000000000500000000000001112600000000000000009999123100000010000000000000BRSMFTR04OR0117
012026020210BMGB2       010BANCO BMG   DIR PRE N1   R$  000000000008100000000000840000000000065000000000007100000000000700000000000068000000000007000556000000000000161600000000000011611200000000000000009999123100000010000000000000BRBMGBD02PR3117
012026020210AALR1       010ALLIAR      DIR ORD NM   R$  000000000000100000000000010000000000001000000000000100000000000010000000000000000000000000100041000000000000045200000000000000045200000000000000009999123100000010000000000000BRAALRD02OR9103
012026020212RNGO11      010FII RIONEGROCI  ER       R$  000000000518600000000053000000000005151000000000519500000000051510000000005151000000000525100038000000000000001130000000000005870843000000000000009999123100000010000000000000BRRNGOCTF003263
012026020212RPRI11      010FII RBR PR  CI  ER       R$  000000000885000000000090000000000008832000000000889300000000089370000000008833000000000896000981000000000000001744000000000015509585000000000000009999123100000010000000000000BRRPRICTF007148
012026020212RSPD11      010FII RBRESID3CI  EA       R$  000000008179900000000817990000000081400000000008175200000000814000000000076102000000008070000006000000000000000017000000000001389785000000000000009999123100000010000000000000BRRSPDCTF006124
012026020212RZAK11      010FII RIZA AKNCI           R$  000000000863800000000086440000000008556000000000862500000000086290000000008629000000000864001576000000000000018873000000000162796822000000000000009999123100000010000000000000BRRZAKCTF008163
012026020212RZAT11      010FII ARCTIUM CI           R$  000000000904900000000091560000000009014000000000908500000000090600000000009070000000000913501555000000000000006711000000000060975449000000000000009999123100000010000000000000BRRZATCTF009137
012026020212RZLC11      010FII RZLC    CI           R$  000000010131100000001013130000000101311000000010131100000001013130000000000000000000000000000004000000000000002030000000000205661390000000000000009999123100000010000000000000BRRZLCCTF002116
012026020212RZTR11      010FII RIZA TX CI  ER       R$  000000000976000000000097770000000009650000000000973400000000097090000000009709000000000971006012000000000000042385000000000412605168000000000000009999123100000010000000000000BRRZTRCTF003168
012026020212RZZR11      010FII RZZR    CI           R$  000000001386300000000138630000000013863000000001386300000000138630000000013572000000001379500001000000000000000001000000000000013863000000000000009999123100000010000000000000BRRZZRCTF000117
012026020212JFLL11      010FII JFL LIV CI  ER       R$  000000000638600000000064740000000006050000000000626000000000064310000000006185000000000643100056000000000000001266000000000007926314000000000000009999123100000010000000000000BRJFLLCTF002163
012026020212JPPA11      010FII JPPA CRICI  ER       R$  000000000868800000000086880000000008530000000000861800000000085300000000008530000000000862000092000000000000000856000000000007377221000000000000009999123100000010000000000000BRJPPACTF005181
012026020212JSAF11      010FII JS A FINCI  ER       R$  000000000079900000000008040000000000795000000000079800000000008000000000000800000000000080105018000000000000146617000000000117116664000000000000009999123100000010000000000000BRJSAFCTF000154
012026020212JSCR11      010FII JSCR    CI  ER       R$  000000000084700000000008780000000000843000000000085000000000008780000000000867000000000087800416000000000000030976000000000026356729000000000000009999123100000010000000000000BRJSCRCTF001120
012026020212RENV11      010FII RENV    CI           R$  000000000071000000000007340000000000697000000000070000000000007000000000000700000000000071000025000000000000000608000000000000425937000000000000009999123100000010000000000000BRRENVCTF003111
012026020212RINV11      010FII REAL INVCI           R$  000000001118000000000111800000000011098000000001114000000000111380000000011129000000001117501103000000000000005011000000000055823364000000000000009999123100000010000000000000BRRINVCTF004140
012026020212RMBS11      010FII RMBS    CI           R$  000000000079600000000008700000000000795000000000084400000000008170000000000810000000000085900256000000000000008623000000000007283521000000000000009999123100000010000000000000BRRMBSCTF007101
012026020212SNCI11      010FII SUNO CRICI           R$  000000000890000000000089000000000008803000000000884000000000088030000000008803000000000883000563000000000000006536000000000057783528000000000000009999123100000010000000000000BRSNCICTF002155
012026020212SNEL11      010FII SUNO EL CI           R$  000000000086200000000008690000000000858000000000086000000000008600000000000859000000000086006348000000000000419021000000000360708393000000000000009999123100000010000000000000BRSNELCTF010130
012026020212SNFF11      010FII SUNOFOFICI           R$  000000000773500000000077350000000007651000000000768400000000077200000000007681000000000772000979000000000000006908000000000053084798000000000000009999123100000010000000000000BRSNFFCTF001158
012026020212SNLG11      010FII SUNO LG CI           R$  000000000012300000000001250000000000108000000000011300000000001130000000000113000000000011500432000000000000037485000000000004252172000000000000009999123100000010000000000000BRSNLGCTF007113
012026020212SNME11      010FII SNME    CI           R$  000000000098200000000009860000000000973000000000097800000000009740000000000974000000000097902159000000000000052732000000000051615061000000000000009999123100000010000000000000BRSNMECTF000126
012026020212SPTW11      010FII SPTW PAXCI  ER       R$  000000000420300000000044430000000004050000000000412700000000041020000000004058000000000411300205000000000000001443000000000005956366000000000000009999123100000010000000000000BRSPTWCTF002255
012026020212SPXS11      010FII SPX SYN CI           R$  000000000089900000000009050000000000893000000000089800000000008950000000000895000000000089803013000000000000052039000000000046768905000000000000009999123100000010000000000000BRSPXSCTF002143
012026020212STYI11      010FII STYI    CI           R$  000000014000100000001599000000000140001000000014557100000001599000000000140000000000015990000012000000000000000034000000000004949418000000000000009999123100000010000000000000BRSTYICTF003100
012026020212CTXT11      010FII C TEXTILCI           R$  000000000049500000000005000000000000491000000000049400000000004910000000000493000000000050000011000000000000000020000000000000009884000000000000009999123100000010000000000000BRCTXTCTF014208
012026020212PQAG11      010FII PARQ ANHCI  ER       R$  000000000555700000000055570000000005496000000000555200000000055560000000005371000000000555600006000000000000000013000000000000072177000000000000009999123100000010000000000000BRPQAGCTF009168
012026020212PQDP11      010FII D PEDRO CI  ER       R$  000000023070000000002307000000000227101000000022973400000002300000000000229000000000023010000017000000000000000032000000000007351509000000000000009999123100000010000000000000BRPQDPCTF004292
012026020212BBFO11      010FII BB FOF  CI  ER       R$  000000000680800000000068500000000006714000000000674800000000067350000000006735000000000676500900000000000000003846000000000025955075000000000000009999123100000010000000000000BRBBFOCTF004161
012026020212BBIG11      010FII BBIG    CI  ER       R$  000000000076200000000007700000000000750000000000075900000000007590000000000759000000000076702268000000000000187647000000000142572826000000000000009999123100000010000000000000BRBBIGCTF004121
012026020212BBRC11      010FII BB CORP CI  ER       R$  000000001030500000000104490000000010290000000001038000000000103920000000010309000000001039200133000000000000000854000000000008865009000000000000009999123100000010000000000000BRBBRCCTF004273
012026020212CNES11      010FII CENESP  CI  ER       R$  000000000018000000000001810000000000179000000000017900000000001790000000000179000000000018000312000000000000016652000000000002995945000000000000009999123100000010000000000000BRCNESCTF001279
012026020212AIEC11      010FII AUTONOMYCI  ER       R$  000000000536700000000054010000000005302000000000539800000000054010000000005401000000000540200227000000000000096878000000000522968159000000000000009999123100000010000000000000BRAIECCTF009165
012026020212AJFI11      010FII AJ MALLSCI  ES       R$  000000000082100000000008250000000000817000000000082100000000008250000000000825000000000082600239000000000000028484000000000023401040000000000000009999123100000010000000000000BRAJFICTF001127
012026020212ALMI11      010FII TORRE ALCI  ER       R$  000000006300000000000647890000000062750000000006298800000000627500000000062750000000006350000024000000000000000038000000000002393565000000000000009999123100000010000000000000BRALMICTF003268
012026020212AFHF11      010FII AFHF    CI           R$  000000000100000000000010130000000001000000000000100000000000010000000000001000000000000100300088000000000000012436000000000012447805000000000000009999123100000010000000000000BRAFHFCTF001106
012026020212AFHI11      010FII AFHI CRICI           R$  000000000965000000000096900000000009620000000000965100000000096850000000009648000000000968701645000000000000006941000000000066988118000000000000009999123100000010000000000000BRAFHICTF005163
012026020212DAMA11      010FII DAMA    CI           R$  000000000072300000000007600000000000723000000000075800000000007600000000000734000000000076000075000000000000000626000000000000474696000000000000009999123100000010000000000000BRDAMACTF007120
012026020212DAMT11      010FII DIAMANTECI  ER       R$  000000000117100000000012500000000001168000000000121600000000011680000000000741000000000116800007000000000000000015000000000000018248000000000000009999123100000010000000000000BRDAMTCTF007119
012026020212DAYM11      010FII DAYC REMCI           R$  000000000042700000000004280000000000410000000000042600000000004100000000000402000000000041000037000000000000004246000000000001810931000000000000009999123100000010000000000000BRDAYMCTF007106
012026020212ALZC11      010FII ALIANZACCI           R$  000000000079800000000008000000000000795000000000079700000000008000000000000798000000000080000616000000000000065549000000000052306315000000000000009999123100000010000000000000BRALZCCTF016124
012026020212ALZR11      010FII ALIANZA CI           R$  000000000107800000000010780000000001070000000000107200000000010720000000001072000000000107304129000000000000223706000000000239892853000000000000009999123100000010000000000000BRALZRCTF006203
012026020212ANCR11      010FII ANCAR ICCI  ER       R$  000000003138500000000313850000000031385000000003138500000000313850000000010000000000003138500004000000000000000008000000000000251080000000000000009999123100000010000000000000BRANCRCTF001164
012026020212APTO11      010FII NAVI RSDCI  ER       R$  000000000084400000000008530000000000835000000000084000000000008390000000000839000000000084400248000000000000007657000000000006434012000000000000009999123100000010000000000000BRAPTOCTF007151
012026020212APXM11      010FII APEX MS CI           R$  000000000848900000000084890000000008053000000000809800000000080530000000008053000000000810000017000000000000000032000000000000259166000000000000009999123100000010000000000000BRAPXMCTF003130
012026020212APXR11      010FII APXR    CI           R$  000000001000000000000100000000000010000000000001000000000000100000000000000000000000001000000001000000000000000010000000000000100000000000000000009999123100000010000000000000BRAPXRCTF002100
012026020212AROA11      010FII AROA    CI  ER       R$  000000000010700000000001070000000000105000000000010500000000001060000000000105000000000010600209000000000000003191000000000000337993000000000000009999123100000010000000000000BRAROACTF003138
012026020212ARRI11      010FII ATRIO   CI  ER       R$  000000000066400000000006640000000000657000000000066000000000006610000000000660000000000066100723000000000000049049000000000032406500000000000000009999123100000010000000000000BRARRICTF009182
012026020212ARXD11      010FII ARXD R  CI  ER       R$  000000000077600000000008030000000000776000000000078700000000008030000000000795000000000081500090000000000000012819000000000010091274000000000000009999123100000010000000000000BRARXDCTF008136
